:020000040800F2
:100000006008002029020008E11B0008F918000818
:10001000551A0008F90C0008912B00080000000098
:10002000000000000000000000000000992300080C
:100030008D17000800000000711C0008B1240008A2
:10004000430200084302000843020008430200087C
:10005000430200084302000843020008430200086C
:10006000430200084302000843020008430200085C
:10007000430200084302000843020008430200084C
:10008000430200084302000843020008430200083C
:10009000FD0D000843020008430200084302000867
:1000A000430200084302000843020008430200081C
:1000B000430200084302000843020008430200080C
:1000C00043020008430200084302000843020008FC
:1000D00043020008652800084302000843020008A4
:1000E00043020008430200084302000843020008DC
:1000F00043020008430200084302000843020008CC
:1001000043020008430200081D25000843020008BE
:1001100043020008430200084302000843020008AB
:10012000430200084302000843020008430200089B
:10013000430200084302000843020008430200088B
:10014000310F000843020008430200084302000880
:10015000430200084302000843020008430200086B
:10016000430200084302000843020008430200085B
:10017000430200084302000843020008430200084B
:10018000430200084302000800F002F800F03CF8C7
:100190000AA090E8000C82448344AAF10107DA45E2
:1001A00001D100F031F8AFF2090EBAE80F0013F0F8
:1001B000010F18BFFB1A43F001031847A44C0000BD
:1001C000C44C0000103A24BF78C878C1FAD852074E
:1001D00024BF30C830C144BF04680C6070470000C1
:1001E0000023002400250026103A28BF78C1FBD840
:1001F000520728BF30C148BF0B6070471FB504F0DD
:100200001AFD1FBD10B510BD00F044F81146FFF7F0
:10021000F5FF03F08DFE00F062F803B4FFF7F2FF84
:1002200003BC00F065F80000094880470948004712
:10023000FEE7FEE7FEE7FEE7FEE7FEE7FEE7FEE796
:10024000FEE7FEE704480549054A064B70470000F3
:10025000B524000889010008600200206008002021
:10026000600400206004002070477047704710B59C
:1002700000F008F8006810BD10B5044600F002F860
:10028000046010BD00487047FC0100200048704722
:10029000FC0100207546FFF7F9FFAE4605006946F0
:1002A000534620F00700854618B020B5FFF7CAFF77
:1002B000BDE820404FF000064FF000074FF0000867
:1002C0004FF0000B21F00701AC46ACE8C009ACE8E8
:1002D000C009ACE8C009ACE8C0098D46704710B54C
:1002E0000446AFF300802046BDE81040FFF795BFFD
:1002F00001491820ABBEFEE726000200704700004F
:1003000010B52DED108B82B0FE4890ED000AFE482E
:10031000D0ED000A30EE200A10EE101A084604F064
:1003200019FC41EC1A0BF94890ED000A20EE000A86
:10033000F748D0ED000A90ED001A00EE810A10EEA9
:10034000101A084604F006FC41EC1C0BB0EE4C0AF7
:10035000F0EE6C0A03F01CF9B0EE40BAF0EE60BAB1
:1003600053EC1A2B51EC1B0B04F00AFB41EC190B5C
:10037000B0EE490AF0EE690A03F09AF8B0EE408A4E
:10038000F0EE608A9FEDE30B53EC102B51EC180B51
:1003900004F0AEF837D2DD48006804F0DBFB41EC36
:1003A0001B0BDB48006804F0D5FB41EC1C0BB0EEE6
:1003B0004B1AF0EE6B1AB0EE4C0AF0EE6C0A02F03B
:1003C0001BFFB0EE409AF0EE609AD44890ED000A20
:1003D000F0EE000A80EE201A11EE104A204604F0DA
:1003E000B9FB41EC1A0B53EC192B04F0C9FA41ECA0
:1003F000180B03F0E5FDCA4908609FEDCA0ACA4818
:1004000080ED000AE6E0C14890ED000A20EE000A07
:10041000BF48D0ED000A90ED001A00EE810A10EE00
:10042000101A084604F096FB41EC1F0BB0EE4F0A81
:10043000F0EE6F0A03F0ACF8B0EE40DAF0EE60DAFE
:10044000B04890ED000AF0EE000A20EE200A10EE0F
:10045000101A084604F07EFB41EC1E0B53EC1D2BDA
:1004600004F082F841EC1B0BA84890ED000A20EE46
:10047000000AA748D0ED000A90ED001A00EE810AAC
:10048000A048D0ED000A90ED001A00EE810A9E48C7
:10049000D0ED000A90ED001A00EEC10A10EE101A1D
:1004A000084604F057FB41EC1C0B53EC1B2B03F0EC
:1004B0006DFE41EC1A0BB0EE4A0AF0EE6A0A02F049
:1004C00083FBB0EE408AF0EE608A9048006804F04A
:1004D00041FB41EC1C0B8E48006804F03BFB41ECF7
:1004E0001D0BB0EE4C1AF0EE6C1AB0EE4D0AF0EEA9
:1004F0006D0A02F081FEB0EE40AAF0EE60AA8748D5
:1005000090ED000AF0EE000A80EE201A11EE104A7B
:10051000204604F01FFB41EC1B0B53EC1A2B04F09C
:100520002FFA41EC190B53EC182B04F029FACDE902
:1005300000019DED000B51EC100B03F041FD7849DB
:100540000860704890ED000A20EE000A6E48D0ED79
:10055000000A90ED001A00EE810A6C48D0ED000A06
:1005600090ED001A00EEC10A6948D0ED000A90ED46
:10057000001A00EEC10A6348D0ED000AB0EE001A7E
:1005800060EE810A604890ED001A60EE810A80EE0C
:10059000201A11EE104A204604F0DCFA41EC180B48
:1005A000B0EE480AF0EE680A02F00EFBB0EE40AA88
:1005B000F0EE60AA5948006804F0CCFA41EC1B0B3D
:1005C00053EC1A2B04F0DCF941EC190B03F0F8FCA6
:1005D00055490860524890ED000A5448D0ED000A91
:1005E00030EE600A4D48D0ED000AB4EEE00AF1EEBC
:1005F00010FA0DDD4A4890ED000A4848D0ED000A97
:10060000B0EE001A01EE600A454880ED000A1EE0D7
:10061000434890ED000A4548D0ED000A30EE600AEC
:100620003E48D0ED000AF1EE600AB4EEE00AF1EEC9
:1006300010FA0CD23A4890ED000A3848D0ED000A82
:10064000B0EE001A01EE200A354880ED000A364867
:1006500090ED000A3648D0ED000A30EE600A2F48CF
:10066000D0ED000AB4EEE00AF1EE10FA0DDD2E48EE
:1006700090ED000A2948D0ED000AB0EE001A01EE14
:10068000600A294880ED000A1EE0274890ED000A24
:100690002748D0ED000A30EE600A2048D0ED000A6D
:1006A000F1EE600AB4EEE00AF1EE10FA0CD21E4848
:1006B00090ED000A1948D0ED000AB0EE001A01EEE4
:1006C000200A194880ED000A144890ED000AF0EE67
:1006D000000A20EE200AF0EE080A80EE201A1048E8
:1006E00090ED000AB4EEC01AF1EE10FA27D20B48D2
:1006F00090ED000AF0EE000A20EE200AF0EE080A63
:1007000018E000005C000020600000203C00002099
:10071000400000203A8C30E28E79453E20000020D7
:100720004C00002000000000500000204400002089
:100730004800002080EE201A3A4880ED001A3A481E
:1007400090ED000AF8EE000A60EE200AB0EE081AFA
:1007500080EE810A3348D0ED000AB4EEE00AF1EEF3
:1007600010FA0DDD304890ED000AF8EE000A20EE98
:10077000200AF0EE080A80EE201A2A4880ED001ABE
:10078000294890ED000AF0EE000A20EE200AB0EEB3
:10079000081AC0EE010A254890ED000AF4EEC00ADE
:1007A000F1EE10FA0DD2204890ED000AF0EE000AAA
:1007B00020EE200AF0EE080A80EE201A1B4880ED99
:1007C000001A194890ED000AF8EE000A20EE200AFF
:1007D000B0EE081AC0EE010A144890ED000AF4EEDB
:1007E000C00AF1EE10FA0DDD0F4890ED000AF8EEA8
:1007F000000A20EE200AF0EE080A80EE201A0B48CC
:1008000080ED001A074890ED000A094880ED000AC3
:10081000064890ED000A074880ED000A02B0BDECE2
:10082000108B10BD4C000020200000205000002044
:10083000440000204800002010B51B4890ED000A3D
:100840001A48D0ED000A30EE200AB0EE401A1848DF
:10085000D0ED001A1748D0ED000A174890ED000AB5
:1008600001F03EFB15480068012813D114480068C8
:1008700001280FD10121134800F0F6FF124801F0C2
:10088000EBF8124801F0FEF811480068401C1049CE
:10089000086007E00C48153000F0F2FF0B481530F7
:1008A00001F00CF810BD00005C000020600000208A
:1008B00084000020800000207C0000202400002014
:1008C000280000200008024089010800890110006A
:1008D0003000002010B52DED088BF0EE408AB0EE10
:1008E000608A184890ED000A1748D0ED000A30EEF3
:1008F000200A10EE101A084604F02CF941EC190BEE
:1009000028EEA80A08EE080A10EE101A084604F0AD
:1009100021F941EC1B0BB0EE4B0AF0EE6B0A02F032
:1009200037FEB0EE40AAF0EE60AA53EC192B51EC62
:100930001A0B03F017FF03D20020BDEC088B10BD8B
:100940000120FAE75C0000206000002010B52DEDCA
:100950000C8BB048407A012831D15020AE49086054
:10096000AC48008800EE100AB8EE400ADFEDAB0A92
:1009700030EE600A9FEDAA1AC0EE010AA94890ED78
:10098000000A9FEDA91A00EE810A80ED000AA14835
:10099000408800EE100AB8EE400ADFEDA00A30EE03
:1009A000600A9FED9F1AC0EE010AA04890ED000A70
:1009B0009FED9D1A00EE810A80ED000AB6E0954891
:1009C000007A01287ED19A48007800287ADD98487C
:1009D0000078012804D14FF47A708F49086002E052
:1009E00050208D490860934890ED000A9248D0ED60
:1009F000000A70EE600A91480068401E00EE100A7E
:100A0000B8EEC00A80EE801A8D4880ED001A884842
:100A10000078401E00EE100AF8EEC00A884890EDFB
:100A2000001A854890ED000A00EE810A854880EDA5
:100A3000000A006804F08EF841EC1D0BB0EE4D0A80
:100A4000F0EE6D0A02F0D0FCB0EE40BAF0EE60BA03
:100A50007D48006804F07EF841EC1C0B53EC1B2B26
:100A600003F082FD41EC190B7848006804F072F83D
:100A700041EC1A0B53EC192B03F0D4FA41EC180B90
:100A800003F09EFA674908606E48006804F062F857
:100A900041EC1D0BB0EE4D0AF0EE6D0A02F014FDB4
:100AA000B0EE40BAF0EE60BA6748006804F052F861
:100AB00041EC1C0B53EC1B2B03F056FD41EC190BC6
:100AC000634800E01DE0006804F044F841EC1A0BB4
:100AD00053EC192B03F0A6FA41EC180B03F070FA53
:100AE0005249086052480078401C51490870084635
:100AF000007852490968884218DD00204C49087086
:100B000014E04B480078012810D04248007A0328AE
:100B10000CD19FED500A434880ED000A9FED4E0A2C
:100B2000424880ED000A0120414908703F48D0ED5D
:100B3000000A3C4890ED000AFFF7CCFE47490860E8
:100B400008460068F0B3FFF7DBFB454800684549FD
:100B500008604548006845490860454890ED000A2E
:100B6000B0EE001AC0EE010A424890ED001A80EE85
:100B7000810ADFED410A20EE200ADFED400A20EE77
:100B8000200ABDEEC00A364880ED000A3C4890EDD0
:100B9000000AF1EE400AB0EE001A80EE810A3548F4
:100BA000D0ED000A80EE201A9FED330A21EE000AF4
:100BB000DFED340A20EE200A2D4890ED001AF0EE09
:100BC000001A00E023E0C1EE210A2A4890ED001A45
:100BD000C0EE811ADFED280A61EEA00A9FED2A1A05
:100BE00000EEC10ABDEEC00A1F4880ED000A27488A
:100BF00090ED000A1A480168254800F085FF234857
:100C000090ED000A18480168224800F0B3FFBDECDF
:100C10000C8B10BDA4000020A00000200000804428
:100C2000000025443C0000206666E63F40000020AE
:100C300088000020900000208C00002094000020FC
:100C40009C00002098000020840000207C000020F0
:100C5000800000200000000000001442340000204A
:100C600068000020740000206C0000207800002044
:100C70004C000020200000200000C8456666664049
:100C8000500000203D0A7740AE4731401C00002054
:100C9000860108008601100008B54FF4C06000F01E
:100CA000DDFF4FF4A06000F0D9FF00201E230622D4
:100CB0000521009000F022F800201E2306220521C5
:100CC000009000F0B5F8A82003F0C6F800F0A4FEEC
:100CD00042F2107001F024FD532140F2E73001F0A0
:100CE00085FC4FF47A7003F0D5F8012001490860C3
:100CF00008BD00001000002000BFFEE72DE9F04114
:100D00008AB004460D4616461F46DDF84080012194
:100D1000084600F0AFFF0121480600F0BBFF4FF48A
:100D2000C050089002208DF8240000208DF8260085
:100D300003208DF8250001208DF8270008A92D48F3
:100D400000F025FD09220B212A4800F068FD092248
:100D50000C21284800F063FD00208DF81A008DF862
:100D60001B008DF81C0001208DF81D0000208DF85F
:100D70001E008DF81F008DF816808DF817408DF835
:100D800018608DF81950ADF8147005A91A4800F0D4
:100D90005AFA00208DF80E008DF80F0001208DF812
:100DA00010000020ADF80400ADF80600ADF8080012
:100DB000ADF80A00ADF80C0001208DF8110001A873
:100DC00000F024F9012202210B4800F033FA14202C
:100DD0008DF8000001208DF8010000208DF8020040
:100DE00001208DF80300684600F0FCFE0AB0BDE863
:100DF000F0810000000002400064004000B585B0B2
:100E00000221094800F086F938B10120074908603D
:100E10006A460021044800F0A0FA0221024800F0CE
:100E2000A1F805B000BD00000064004024000020CF
:100E30002DE9F0418AB004460D4616461F46DDF8FE
:100E400040800121022000F015FF0121880600F0FA
:100E500021FF6020089002208DF8240000208DF8EA
:100E6000260003208DF8250001208DF8270008A911
:100E70002D4800F08CFC092205212B4800F0CFFC06
:100E800009220621284800F0CAFC00208DF81A002B
:100E90008DF81B008DF81C0001208DF81D0000202E
:100EA0008DF81E008DF81F008DF816808DF8174004
:100EB0008DF818608DF81950ADF8147005A91B480D
:100EC00000F0C1F90E208DF80E0000208DF80F0003
:100ED00001208DF810000020ADF80400ADF80600E8
:100EE000ADF80800ADF80A00ADF80C0001208DF84F
:100EF000110001A800F08AF8012202210B4800F03D
:100F000099F940208DF8000001208DF801000020A3
:100F10008DF8020001208DF80300684600F062FEA3
:100F20000AB0BDE8F0810000000402400068004003
:100F300010B50221084800F0EDF838B1012007494A
:100F40000860074A0021044800F007FA022102481D
:100F500000F008F810BD00000068004028000020E4
:100F600088010020B1F5007F3AD00FDC202928D07D
:100F700006DC01291CD004291DD0082940D11DE020
:100F8000402921D0B1F5807F3AD126E0B1F5004F5C
:100F900031D006DCB1F5806F25D0B1F5006F2FD1CF
:100FA00024E0B1F5803F12D0B1F5003F28D111E027
:100FB000154A826025E00822C26022E01022C26049
:100FC0001FE0082202611CE01022026119E00822E1
:100FD000426016E01022426013E00422426010E0FA
:100FE000042242600DE0042242600AE00022826195
:100FF0000422426005E0002282610422426000E097
:1010000000BF00BF704700000101010010B50021C2
:10101000837A012202FA03F13D4A126842F001028A
:101020003B4B1A603A4A1C3212688A43384B1C33D5
:101030001A60027BCAB9364A0C3212688A43344BB2
:101040000C331A604288C38842EA0343304A403274
:10105000847A42F834300288838842EA03432C4A77
:101060004032847A02EBC4025360027B012A19D118
:10107000274A0C3212680A43254B0C331A60428807
:10108000038842EA0343224A4032847A42F83430E9
:10109000C288838842EA03431D4A4032847A02EBC5
:1010A000C4025360C27A3AB9194A121D12688A43BF
:1010B000174B1B1D1A6006E0154A121D12680A43E1
:1010C000134B1B1D1A60028932B9114A143212687F
:1010D0008A430F4B14331A600289012A06D10C4A45
:1010E000143212680A430A4B14331A60427B012AF5
:1010F00006D1074A1C3212680A43054B1C331A609A
:10110000034A126822F00102014B1A6010BD000070
:101110000066004070B504460D4600266069284010
:10112000002871D0B5F5807F5CD010DC082D35D05B
:1011300006DC012D20D0022D24D0042D72D127E011
:10114000102D31D0202D35D0402D6BD138E0B5F5A4
:10115000004F60D009DCB5F5007F49D0B5F5806F50
:101160004CD0B5F5006F5DD14FE0B5F5803F2DD087
:10117000B5F5003F56D12FE0A0682D4900F0F8F9F1
:10118000064651E0E068032100F0F2F906464BE024
:10119000E068082100F0ECF9064645E0E06810211F
:1011A00000F0E6F906463FE02069032100F0E0F98F
:1011B000064639E02069082100F0DAF9064633E0F6
:1011C0002069102100F0D4F906462DE0606808215E
:1011D00000F0CEF9064627E06068102100F0C8F95B
:1011E000064621E0A069012100F0C2F906461BE095
:1011F000A069022100F0BCF9064615E0A0690421AF
:1012000000F0B6F906460FE00FE0A069702100F08B
:10121000AFF9064608E06068042100F0A9F9064627
:1012200002E0FFE7002600BF00E00026304670BD68
:10123000010101001AB143690B43436102E04369B4
:101240008B434361704730B5024600200023146889
:1012500024F002041460146844F00104146000E0F7
:101260005B1C546804F001041CB94FF6FF74A342E0
:10127000F6D1546804F001040CB900206CE08C79BC
:10128000012C04D1146844F08004146003E0146855
:1012900024F080041460CC79012C04D1146844F04B
:1012A0004004146003E0146824F0400414600C7AD5
:1012B000012C04D1146844F02004146003E0146885
:1012C00024F0200414604C7A012C04D1146844F0FA
:1012D0001004146003E0146824F0100414608C7A85
:1012E000012C04D1146844F00804146003E014686D
:1012F00024F008041460CC7A012C04D1146844F062
:101300000404146003E0146824F0040414608C786E
:10131000A407CD7844EA05640D7944EA05444D7983
:1013200044EA05540D886D1E2C43D461146824F0E2
:1013300001041460002300E05B1C546804F0010405
:101340001CB14FF6FF74A342F6D1546804F00104B7
:101350000CB1002000E0012030BD10B500F5D873BD
:1013600003EB01131B6803F004031372137A53B9E0
:1013700000F5D87303EB01131B6840F2FF7404EA15
:101380005353136009E000F5D87303EB01131B6896
:101390006FF0604404EAD303536000F5D87303EBA5
:1013A00001131B6803F00203537200F5D87303EBBB
:1013B00001135B6803F00F03937200F5D87303EB1E
:1013C00001135B681B0AD37400F5D87303EB011398
:1013D0009B68D37200F5D87303EB01139B681C0A5A
:1013E000147300F5D87303EB01139B681C0C547342
:1013F00000F5D87303EB01139B681B0E937300F584
:10140000D87303EB0113DB68D37300F5D87303EBD8
:101410000113DB681C0A147400F5D87303EB011385
:10142000DB681C0C547400F5D87303EB0113DB6804
:101430001B0E937421B9C36843F02003C36003E01B
:10144000036943F02003036110BD10B5024600207C
:10145000936803F08063B3F1806F00D110E093686C
:1014600003F00063B3F1006F01D1012008E093683D
:1014700003F08053B3F1805F01D1022000E004202B
:10148000042874D002F5C07303EB00131B6803F04B
:10149000010402F5C07303EB00131C600B7A7BB9E7
:1014A0004B7A0C8843EA445302F5C07404EB0014F1
:1014B0002468234302F5C07404EB0014236010E099
:1014C0000B7A4C6843EAC4034C7A234302F5C07498
:1014D00004EB00142468234302F5C07404EB0014E9
:1014E00023608B7A03F00F038B7202F5C07303EB5A
:1014F00000135B6823F00F0402F5C07303EB0013C5
:101500005C6002F5C07303EB00135B688C7A2343C5
:1015100002F5C07404EB001463608B7B1C064B7BEC
:1015200044EA03440B7B44EA0323CC7A234302F5C9
:10153000C07404EB0014A3608B7C1C064B7C44EA53
:1015400003440B7C44EA0323CC7B234302F5C074A1
:1015500004EB0014E36002F5C07303EB00131B6897
:1015600043F0010402F5C07303EB00131C6010BDCF
:101570000246002002EA01030BB1012000E0002036
:10158000704721B1026842F00102026003E0026884
:1015900022F0010202607047016821F00101016040
:1015A0000021016041608160C160016121214161D0
:1015B0004A49884204D13D21484A103A91608CE062
:1015C00046491831884205D14FF47461434A103AB4
:1015D000916082E041493031884205D14FF4741165
:1015E0003E4A103A916078E03C494831884205D142
:1015F0004FF07461394A103A91606EE037496031BA
:10160000884204D13649354A103AD16065E0334901
:101610007831884204D13349304A103AD1605CE0D5
:101620002E499031884204D12F492C4A103AD1607A
:1016300053E02A49A831884205D14FF03D51274A4D
:10164000103AD16049E02949884204D13D21274A16
:10165000083A116041E025491831884205D14FF41C
:101660007461224A083A116037E0204930318842DB
:1016700005D14FF474111D4A083A11602DE01B4941
:101680004831884205D14FF07461184A083A116018
:1016900023E016496031884204D11149134A121FD0
:1016A00011601AE011497831884204D10D490F4A7E
:1016B000121F116011E00D499031884204D10A498E
:1016C0000A4A121F116008E00849A831884204D173
:1016D0004FF03D51054A121F1160704710600240E3
:1016E0003D000020400F002000003D20106402401B
:1016F00021B1026842F48022026003E0026822F411
:1017000080220260704722B1036843F40023036023
:1017100003E0036823F4002303600161704701467E
:1017200000200A6802F400220AB1012000E0002033
:101730007047000010B500220268134B1A40CC68B5
:101740000B6823434C6923438C692343CC692343AF
:101750000C6A23434C6A23438C6A23434C6B234318
:101760008C6B23431A430260426922F00702D1E9DD
:101770000B3423431A4342610B6943604B68836017
:101780008B68C36010BD00003F801CF07047F0B54F
:101790000A4600210023002400BF3DE0012505FA90
:1017A00001F3156805EA03049C4234D105684F0033
:1017B0000326BE40B543056015794E00B540066866
:1017C000354305601579012D02D01579022D16D10A
:1017D00085684F000326BE40B543856055794E00AD
:1017E000B540866835438560456801268E40B5431F
:1017F0004560456896798E40B6B235434560C56808
:101800004F000326BE40B543C560D5794E00B540B4
:10181000C6683543C560491C1029BFD3F0BDF0B57B
:10182000002300244D07ED0E02FA05F3CE1000F15F
:10183000200555F826504E07F70E0F26BE40B5433B
:10184000CF1000F1200646F82750CE1000F12005F9
:1018500055F8265045EA0304CE1000F1200545F85E
:101860002640F0BD41837047018370474FF6FF71FA
:1018700001600021017141718171C17170470000E7
:1018800010B586B0044600200190029404208DF823
:101890000C0000208DF80D0002208DF80E000A20AB
:1018A0008DF80F0007218DF8101001A90248FFF7ED
:1018B000CCFD06B010BD00000064004010B586B03D
:1018C000044600200190029404208DF80C000020B2
:1018D0008DF80D0002208DF80E000A208DF80F0003
:1018E00007218DF8101001A90248FFF7AEFD06B0E0
:1018F00010BD00000068004000BFFEE7434890F9BB
:101900000000401CC0B14248807C00F00100414909
:1019100088703F48807CC0F340013E4801723C48DB
:10192000807CC0F380013B4881733948807CC0F3E0
:10193000C0013848017517E03548807CC0F340008D
:10194000344988703248807C00F0010131480172CE
:101950002F48807CC0F3C0012E4881732C48807CC6
:10196000C0F380012B4801752948807CC0F3001129
:10197000284881762648807CC0F34011254880F8AD
:1019800020102348807CC0F38011224880F8261064
:101990001F48807CC1091F4880F82C101C48C07C5F
:1019A00000F001011B4880F832101948C07CC0F3D8
:1019B0004001184880F838101548C07CC0F38001F9
:1019C000144880F83E101248C07CC0F3C001114892
:1019D00080F844100E48C07CC0F300110D4880F818
:1019E0004A100B48C07CC0F340110A4880F85010E0
:1019F0000748C07CC0F38011064880F856100448A0
:101A0000C07CC109034880F85C107047B800002012
:101A1000A40000209C0100201CB50121042000F03E
:101A200029F90320009001208DF8040000208DF892
:101A3000060003208DF8050001208DF80700694697
:101A40000348FFF7A4FE03210148FFF70BFF1CBD6D
:101A50000008024000BFFEE710B586B00446002033
:101A60000190029404208DF80C0000208DF80D00E8
:101A70008DF80E0001A90248FFF7E7FC06B010BD83
:101A80000064004010B586B0044600200190029426
:101A900004208DF80C0000208DF80D008DF80E004C
:101AA00001A90248FFF7D1FC06B010BD0068004054
:101AB00010B586B0044600200190029404208DF8F1
:101AC0000C0000208DF80D008DF80E0001A90248D1
:101AD000FFF7BBFC06B010BD0064004010B586B037
:101AE000044600200190029404208DF80C00002090
:101AF0008DF80D008DF80E0001A90248FFF7A5FC36
:101B000006B010BD0068004070B52DED028B86B0A8
:101B100006460C46B0EE408A002001900296042052
:101B20008DF80C0000208DF80D0008208DF80E00B7
:101B300018EE105A200E8DF80F00210C8DF81010A1
:101B4000210A8DF811108DF81240280E8DF813001F
:101B5000290C8DF81410290A8DF815108DF81650DF
:101B600001A90348FFF771FC06B0BDEC028B70BD04
:101B70000064004070B52DED028B86B006460C4621
:101B8000B0EE408A00200190029604208DF80C00EF
:101B900000208DF80D0008208DF80E0018EE105A68
:101BA000200E8DF80F00210C8DF81010210A8DF8F1
:101BB00011108DF81240280E8DF81300290C8DF8A5
:101BC0001410290A8DF815108DF8165001A9034834
:101BD000FFF73BFC06B0BDEC028B70BD0068004017
:101BE0007047000070B5002100230F22C4781CB399
:101BF000174C246804F4E064C4F5E064C4F30721DE
:101C0000C1F10404E3B20A4144789C40E1B2847813
:101C1000144021430C07210E0E4C057861550478C1
:101C200004F01F050124AC4005786D11AD0005F1ED
:101C3000E025C5F8004109E0047804F01F050124FF
:101C4000AC40054D0678761145F8264070BD000081
:101C50000CED00E000E400E080E100E00249014317
:101C6000024A1160704700000000FA050CED00E028
:101C70007047000029B1064A12680243044B1A60FB
:101C800004E0034A12688243014B1A607047000067
:101C90003038024029B1064A12680243044B1A60E8
:101CA00004E0034A12688243014B1A607047000047
:101CB0004038024029B1064A12680243044B1A60B8
:101CC00004E0034A12688243014B1A607047000027
:101CD0002038024029B1064A12680243044B1A60B8
:101CE00004E0034A12688243014B1A607047000007
:101CF0004438024029B1064A12680243044B1A6074
:101D000004E0034A12688243014B1A6070470000E6
:101D100024380240F0B500210022002402250026CC
:101D20000223324F3F6807F00C0121B1042905D08E
:101D3000082937D105E02E4F076036E02D4F0760A8
:101D400033E02A4F3F1F3F68C7F38056274F3F1F9E
:101D50003F6807F03F036EB1264FB7FBF3F7DFF89C
:101D60008CC0ACF1040CDCF800C0CCF3881C07FB81
:101D70000CF40CE01E4FB7FBF3F7DFF870C0ACF1CA
:101D8000040CDCF800C0CCF3881C07FB0CF4174FE4
:101D90003F1F3F68C7F301477F1C7D00B4FBF5F789
:101DA000076002E0124F076000BF00BF0F4F3F689F
:101DB00007F0F0010909104F7A5C0768D7404760C7
:101DC0000A4F3F6807F4E051890A0B4F7A5C476875
:101DD000D7408760054F3F6807F46041490B064FC5
:101DE0007A5C4768D740C760F0BD00000838024001
:101DF0000024F40000127A000000002000B5024622
:101E000002B900BD1078517840EA0120C0F30A0001
:101E1000314988805078C010917840EA4110C0F371
:101E20000A002D49C88090788011D17840EA81005D
:101E3000117940EA8120C0F30A002749088010790F
:101E40004010517940EAC110C0F30A00224948808D
:101E500050790011800808725079C0F3011048725F
:101E60009079D17940EA012000B21B494881107A6B
:101E7000517A40EA012001B217488181907AD17AE3
:101E800040EA012001B21448C181117B0174517BE9
:101E90004174907B10498874D17B0F48C1740F48FE
:101EA00090F90000401C90B90B4801880088A0F50B
:101EB0008060022303FB1010074908800846418810
:101EC0004088A0F5806003FB101003494880FFF7AD
:101ED00015FD00BF95E70000A4000020B800002019
:101EE00000B52DED108B8FB0B0EE40BAF0EE609AD9
:101EF000F0EE41CAB0EE61CA9FEDFE0AB0EE40DAE4
:101F00009FEDFC0AF0EE40BAF0EE6CFAB0EE4B9AA0
:101F1000F0EE698AB0EE4CAA3DEE490A20EE000AC6
:101F20007BEEE80A3BEEE81A00EE810A10EE101A8A
:101F3000084602F00FFECDE90A019DED0A0B01F003
:101F400027FBB0EE40EAF0EE60EA51EC1E0B02F027
:101F500037F80E903BEEE80A7DEE490A80EE201A33
:101F60008DED0D1A9DED0D0AF0EE680A40EE490A5E
:101F7000CDED0C0A9DED0D0AFFEE000A80EE801AF1
:101F8000B0EE418A2FEEAF0A0AEE4A0A0DEE4D0A74
:101F900009EE090A0BEEEB0A08EEA80A78EEEB0A46
:101FA000B0EE001A60EE810A80EE201AF0EE41AA2F
:101FB0000E9802F0CFFD41EC1E0B3AEE6F0A10EEC8
:101FC000101A084602F0C6FDCDE908019DED080B88
:101FD00001F06EFA8DED0A0B53EC1E2B9DED0A0BF2
:101FE00051EC100B02F084FA7ED27AEE2F0A9DEDAE
:101FF0000E0AF4EEC00AF1EE10FA75DDB7EE000A33
:1020000008EE080A10EE101A084602F0A3FDB1EE21
:102010006A0A20EE2A0A0AEE0A0A68EE080A60EE48
:102020008A0A00EE8A0AF0EE000A6AEEA00A60EE62
:10203000880A00EEC90A68EE080A60EE890A00EE16
:10204000C90AF0EE000A6AEEA00A00EEA80AF0EE55
:10205000000A68EE200A60EE890A00EEA80A08EE7F
:10206000E80ACDE9080110EE101A084602F072FDE8
:10207000CDE900019DED000B01F08AFA8DED040B16
:10208000B0EE490AF1EE6A0A00EE880A08EE280A64
:1020900010EE101A084602F05DFDCDE902019DED3B
:1020A000040B53EC102B9DED020B51EC100B02F0C6
:1020B00067FCCDE906019DED080B53EC102B9DED5F
:1020C000060B51EC100B02F061F8CDE90A019DED11
:1020D0000A0B51EC100B01F073FF0DEE900AB0EEFD
:1020E0006A0A08EE2D0A00E00FE1B0EE40EAB7EE12
:1020F000000A08EE080A10EE101A084602F02AFD3F
:10210000B1EE6A0A20EE2A0A0AEE0A0A68EE080A06
:1021100060EE8A0A00EE8A0AF0EE000A6AEEA00A71
:1021200060EE880A00EEC90A68EE080A60EE890AC5
:1021300000EEC90AF0EE000A6AEEA00A00EEA80A54
:10214000F0EE000A68EE200A60EE890A00EEA80AA6
:1021500008EEE80ACDE9080110EE101A084602F070
:10216000F9FCCDE900019DED000B01F011FA8DEDB8
:10217000040BB0EE490AF1EE6A0A00EE880A08EE96
:10218000280A10EE101A084602F0E4FCCDE902011C
:102190009DED040B53EC102B9DED020B51EC100B3D
:1021A00001F040FFCDE906019DED080B53EC102B2B
:1021B0009DED060B51EC100B01F0E8FFCDE90A0193
:1021C0009DED0A0B51EC100B01F0FAFE0EEE900A99
:1021D000B0EE6A0A08EE2E0AB0EE40FAB4EECEFA7D
:1021E000F1EE10FA44DD3EEECB0A10EE101A08466E
:1021F00002F0B0FC3FEE690ACDE9080110EE101ABA
:10220000084602F0A7FCCDE906019DED081B9DEDF7
:10221000060B00F0F1FF8DED0A0B9DED0A0B51EC62
:10222000100B01F0CDFE344908603DEECB0A10EEF4
:10223000101A084602F08EFC3EEE690ACDE908014C
:1022400010EE101A084602F085FCCDE906019DED5E
:10225000081B9DED060B00F0CFFF8DED0A0B9DEDE9
:102260000A0B51EC100B01F0ABFE244908604BE067
:102270003DEECB0A10EE101A084602F06BFC3EEE63
:10228000690ACDE9080110EE101A084602F062FC56
:10229000CDE906019DED081B9DED060B00F0ACFF9E
:1022A0008DED0A0B9DED0A0B51EC100B01F088FE31
:1022B000114908603EEECB0A10EE101A084602F0F3
:1022C00049FC3FEE690ACDE9080110EE101A0846F4
:1022D00002F040FCCDE906019DED081B9DED060BCB
:1022E00000F08AFF8DED0A0B9DED0A0B51EC100BEF
:1022F00006E00000000000008C000020900000209C
:1023000001F05EFE2149086000BF214890ED000AFF
:102310001E48D0ED000A30EE600A1E48D0ED000ADB
:10232000B4EEE00AF1EE10FA0CDD194890ED000A67
:102330001848D0ED000AB0EE001A01EE600A144809
:1023400080ED000A124890ED000A1048D0ED000A16
:1023500030EE600A0F48D0ED000AF1EE600AB4EEEC
:10236000E00AF1EE10FA0CD2094890ED000A094893
:10237000D0ED000AB0EE001A01EE200A044880ED0C
:10238000000A0FB0BDEC108B00BD000090000020D3
:102390008C00002020000020704700000CB50020B9
:1023A000019000903448006840F480303249086061
:1023B00000BF3148006800F4003000900198401CD4
:1023C0000190009818B90198B0F5A04FF1D12A48B2
:1023D000006800F4003010B10120009001E00020FE
:1023E00000900098012846D123484030006840F012
:1023F00080502149403108602048006840F4404046
:102400001E4908601C48083000681B4908310860F4
:102410000846006840F4004008600846006840F440
:10242000A05008601648091F0860081F006840F0A7
:102430008070091F086000BF0F48006800F000703E
:102440000028F9D040F205700E4908600A480830AB
:10245000006820F003000849083108600846006859
:1024600040F00200086000BF03480830006800F038
:102470000C000828F8D10CBD003802400070004064
:1024800008544007003C0240042808D14FF0E021E6
:10249000096941F004014FF0E022116107E04FF0BB
:1024A000E021096921F004014FF0E0221161704739
:1024B0007047000010B51548006840F470001349DB
:1024C00008601348006840F00100114908600020CE
:1024D0000F49083108600E4800680E4908400C4951
:1024E00008600D48091D0860081F006820F480205E
:1024F000091F0860002006490C310860FFF74EFFF5
:102500004FF0006001498039086010BD88ED00E09F
:1025100000380240FFFFF6FE1030002410B5012104
:10252000284800F0A0F8002846D027480068401C42
:10253000254908602548007A022805D12448FFF77C
:10254000B7FA2448FFF7CAFA2048407A022806D191
:1025500000202149086001212048FFF783F9204825
:10256000006848B318480068B0F57A7F24D9164847
:1025700000686421B0FBF1F201FB120040B916487B
:10258000006828B9FEF758F90F4800681549086037
:102590000D48006813490968401A40F6B83188426E
:1025A0000AD90948006810490968B0FBF1F201FB3B
:1025B000120008B9FEF7CAF90121024800F044F8F8
:1025C00010BD0000000C004014000020A4000020FA
:1025D0008201080082011000300000200008024043
:1025E0001000002018000020A00000207FB5054644
:1025F0000C4601210820FFF74DFB0295ADF8044081
:102600000020ADF80600ADF80C0001A90D4800F05F
:1026100045F8012211460B4800F036F8012109481F
:1026200000F015F832208DF8000001208DF801002F
:1026300003208DF8020001208DF803006846FFF7A3
:10264000D1FA7FBD000C0040CA430282704721B11D
:10265000028842F00102028004E002884FF6FE7315
:102660001A400280704730B5024600200023002443
:10267000158A05EA0103958905EA010413B10CB135
:10268000012000E0002030BD1AB183890B43838113
:1026900002E083898B438381704700000022028817
:1026A000184B98420ED0184B98420BD0B0F1804F87
:1026B00008D0164B984205D0154B984202D0154BC6
:1026C000984204D14FF68F731A404B881A43124B2D
:1026D000984207D0114B984204D04FF6FF431A405E
:1026E0000B891A4302804B68C3620B880385054B34
:1026F000984202D0044B984201D18B7A0386012381
:102700008382704700000140000401400004004043
:1027100000080040000C0040001000400014004081
:1027200010B596B0044601210846FFF7A3FA01212F
:102730001020FFF7CFFA07220A214548FFF76FF86C
:1027400014A8FFF793F84FF48060149002208DF8DE
:10275000540001208DF8570002208DF8550000200C
:102760008DF8560014A93A48FFF711F8394800F0DF
:10277000D1F810A800F000FA374810900020ADF80A
:102780004400ADF846004FF48060ADF848000420E6
:10279000ADF84A000020ADF84C0010A92D4800F01B
:1027A00081F901212B4800F09FF8012240F22441D9
:1027B000284800F051F901224021264800F0A0F8F5
:1027C0002648FEF7E9FE01218805FFF753FA4FF08E
:1027D000006000901F48001D0190214802900020D9
:1027E000039014200490002005904FF48060069020
:1027F0000020079008904FF4807009904FF440300B
:102800000A9000200B900C900D900E90002214491D
:102810001248FEF778FF01211048FEF769FF69466C
:102820000E48FEF787FF01210C48FEF7AAFE25207F
:102830008DF83C0002208DF83D008DF83E0001200F
:102840008DF83F000FA8FFF7CDF916B010BD0000BE
:102850000000024000100140A086010040640240D8
:10286000C000002010B540F224411C4800F0CAF816
:1028700098B31A480088194880881948FEF74FFF16
:10288000B0B900211648FEF77CFE14201449091D3A
:1028900008604FF4002213491148FEF734FF01216C
:1028A0000F48FEF76EFE0F486438FFF7A7FA14E0F2
:1028B00000210B48FEF765FE14200949091D086038
:1028C0000022084964390648FEF71DFF012104482B
:1028D000FEF757FE0348FFF791FA10BD00100140C4
:1028E000406402402401002021B1828942F4005258
:1028F000828104E082894DF6FF731A40828170471D
:102900001AB1838A0B43838202E0838A8B438382DA
:102910007047000010B504463248844208D10121B6
:102920001020FFF7E7F900211020FFF7E3F957E047
:102930002D48844209D101214804FFF7BBF9002149
:102940004FF40030FFF7B6F94AE02848844209D135
:1029500001218804FFF7AEF900214FF48020FFF732
:10296000A9F93DE02248844209D10121C804FFF7BA
:10297000A1F900214FF40020FFF79CF930E01D4839
:10298000844209D101210805FFF794F900214FF491
:102990008010FFF78FF923E01748844208D1012106
:1029A0002020FFF7A7F900212020FFF7A3F917E067
:1029B0001248844209D101218807FFF77BF90021E1
:1029C0004FF08040FFF776F90AE00D48844207D1C6
:1029D00001214005FFF76EF900216005FFF76AF954
:1029E00010BD0000001001400044004000480040BD
:1029F000004C0040005000400014014000780040AE
:102A0000007C004070B50246002400230025002011
:102A100040F66A16B14200D100BFC1F3421501F081
:102A20001F03012606FA03F3012D02D196893340D4
:102A300006E0022D02D1168A334001E0968A334027
:102A40000C12012606FA04F41688344013B10CB1B6
:102A5000012000E0002070BDF0B5034600240026F0
:102A60000025002040F66A17B94200D100BF184681
:102A7000C1F3421401F01F06012707FA06F5012CE5
:102A800001D10C3004E0022C01D1103000E01430F0
:102A90001AB107682F43076002E00768AF43076079
:102AA000F0BD00002DE9FF4705460E460024A14673
:102AB00000BFA046B08900B100BF2C8A24F4405466
:102AC000F08804432C82AC8941F20C608443B088C6
:102AD00031890843718908430443AC81AC8A24F4EA
:102AE0004074B0890443AC826846FFF713F920486C
:102AF000854202D01F48854202D1DDF80C9001E0EA
:102B0000DDF80890A88900F4004040B109EBC90045
:102B100000EB091031684900B0FBF1F707E009EB61
:102B2000C90000EB091031688900B0FBF1F764209F
:102B3000B7FBF0F004012009642101FB1078A8899B
:102B400000F4004040B1322000EBC800B0FBF1F0CF
:102B500000F00700044308E0322000EB0810642175
:102B6000B0FBF1F000F00F0004432C81BDE8FF87BB
:102B700000100140001401404FF416510160002183
:102B80008180C18001810C214181002181817047B8
:102B900000BFFEE703B401984100009850EAC1204D
:102BA00018BF04204A0D18BF40F0010040F2FF7228
:102BB000B2EB515F08BF40F00200012808BF0520BA
:102BC00002B070470000000010B5B94A2DED020BAD
:102BD0002DED0C8B82B00F9921F000409FEDB6CB0C
:102BE00090422CDBA0F140530E9AA3F17F631A436D
:102BF0000FD0B349884202DC16D10E98A0B19DEDEA
:102C00000E0B02B0BDEC0C8B02B0BDE8104001F021
:102C1000E7B80029C1BF9FEDAC0B02B0BDEC0C8B37
:102C200002B0C8BF10BD16E00120FDF725FB02B0C1
:102C3000BDEC0C8B02B0BDE8104001F0E5B8A44A31
:102C40009FEDA59B9FEDA6AB90425EDAA6499FED56
:102C5000A8CB814208DBB0EE4C0AF0EE6C0A02B061
:102C6000BDEC0C8B02B010BD9DED0E0B53EC102B88
:102C700051EC100B01F078FC41EC180B9E4806213A
:102C8000B0EE480AF0EE680A784400F095FF53EC85
:102C9000182B51EC100B01F067FC41EC1B0B974813
:102CA000B0EE480AF0EE680A0421784400F084FF90
:102CB00053EC182B51EC100B01F056FC53EC192B74
:102CC00001F0B0F941EC100B51EC1B0B53EC102B45
:102CD00001F05CFA41EC100B53EC102B9DED0E0B48
:102CE00051EC100B01F040FC53EC1A2B01F070FD7D
:102CF0009DED0E1B53EC112B01F06AFD53EC1C2BC8
:102D000001F066FD41EC100BA9E79FED7D8B9FED77
:102D10007EBB9DED0E0B002953EC192B51EC100BD3
:102D200052DA01F07FF953EC182B01F01DFC41EC55
:102D3000180B77480621B0EE480AF0EE680A78448E
:102D400000F03AFF53EC182B51EC100B01F00CFC87
:102D500041EC1D0B6F48B0EE480AF0EE680A042102
:102D6000784400F029FF53EC182B51EC100B01F0C4
:102D7000FBFB53EC192B01F055F941EC190B51EC0D
:102D8000180B01F0D9F841EC180B53EC192B51EC4E
:102D90001D0B01F0FBF953EC182B01F0E5FB53EC94
:102DA0001A2B01F0EDFD41EC100B51EC180B53EC1C
:102DB000102B01F037F953EC1B2B01F0D5FB53EC32
:102DC0001C2B01F005FD6DE001F002FD53EC182B0A
:102DD00001F0CAFB41EC180B01F0AEF841EC1A0B04
:102DE00000208DED00AB00909DED000B51EC1A0B17
:102DF00053EC102B01F016F99DED000B41EC1C0B70
:102E000053EC102B51EC100B01F0AEFB53EC182BD4
:102E100001F0DEFC53EC1C2B01F0B8F941EC1C0B6B
:102E20003D48B0EE480AF0EE680A0621784400F00A
:102E3000C3FE53EC182B51EC100B01F095FB41EC49
:102E40001D0B3648B0EE480AF0EE680A04217844BB
:102E500000F0B2FE53EC182B51EC100B01F084FB88
:102E600053EC192B01F0DEF841EC100B51EC1D0B6B
:102E700053EC102B01F08AF953EC1A2B01F074FB80
:102E800053EC1C2B01F0CEF841EC100B53EC102B43
:102E90009DED000B51EC100B01F0C4F853EC1B2B13
:102EA00001F062FB41EC100BD9E6000000000000CD
:102EB0000000F03F00000000182D4454FB210940A1
:102EC0000000F07F00000000000000000000000093
:102ED0000000E03F00000000000000000000F03FA4
:102EE000075C143326A6913C0000603C0000000003
:102EF000182D4454FB21F93FC41F0000D21F0000CD
:102F0000000000000000E03F000000000000004062
:102F10000E1F00001C1F0000201E00002E1E0000BF
:102F200070B59B482DED020B2DED068B079D25F00E
:102F30000044A04218DC9748844202DC0AD106987B
:102F400040B19DED060BBDEC068B02B0BDE87040B4
:102F500000F046BF002DCCBF9FED8F0B9FED900B77
:102F6000BDEC068B02B070BD8F48A04215DD8F48C6
:102F7000A042D8BF4FF0FF3458DD9DED060B51EC59
:102F8000100BFFF707FE042808BF00F04DFF9DED72
:102F9000060BBDEC068B02B070BD9DED060B51EC2F
:102FA000100B00F0B9FFCDE9060181489FED828B3F
:102FB000A0423CDD8248A0421FDD00249FED82AB91
:102FC0009DED060B53EC1A2B51EC100B01F02AF877
:102FD0009DED060B41EC190B53EC1A2B51EC100B29
:102FE00001F0C2FA53EC182B01F0CAFC53EC192B78
:102FF00001F0CCF8CDE9060149E09DED060B012476
:1030000053EC182B51EC100B01F00CF89DED060B56
:1030100041EC190B53EC182B51EC100B01F0B0FCE8
:1030200053EC192B01F0B2F8CDE906012FE0684806
:10303000A0421FDD02249FED689B9DED060B53EC23
:10304000192B51EC100B01F08FFA53EC182B00F0F8
:10305000E9FF9DED060B41EC180B53EC192B51ECDD
:10306000100B01F08DFC53EC182B01F08FF8CDE91B
:1030700006010CE09DED060B032453EC102B9FED95
:10308000580B51EC100B01F081F8CDE906019DEDD4
:10309000060B53EC102B51EC100B01F065FA41ECD0
:1030A000180B53EC182B01F05FFA41EC190B4E484A
:1030B0000621B0EE490AF0EE690A784400F07CFD82
:1030C00053EC182B51EC100B01F04EFA41EC180B9D
:1030D0004648B0EE490AF0EE690A0521784400F04E
:1030E0006BFD53EC192B51EC100B01F03DFA41EC48
:1030F000100B51EC180B53EC102B002C0EDA00F0D7
:1031000091FF9DED061B53EC112B01F02DFA9DED67
:10311000061B53EC112B01F05BFB35E000F082FF46
:103120009DED061B53EC112B01F01EFA41EC100B28
:103130002F48784400EBC40090ED001B51EC100BBD
:1031400053EC112B01F01CFC9DED061B53EC112BD5
:1031500001F016FC41EC100B2648784400EBC4004B
:1031600090ED001B51EC100B53EC112B01F030FBD8
:1031700041EC100B002DA2BFBDEC068B02B070BD60
:1031800051EC100B00F00FFF41EC100B01E70000B9
:10319000000010440000F07F182D4454FB21F93F3B
:1031A000182D4454FB21F9BF0000DC3F0000203EF5
:1031B0000000F33F00000000000000000000F03FAE
:1031C0000000E63F0000000000000000000000409A
:1031D0000080034000000000000000000000F83FF5
:1031E000000000000000F0BF4A1C0000001C0000AE
:1031F0008A1B0000421B000070B56B4E2DED040BC6
:103200002DED028B82B0DDF81CC0DDE905235C42A8
:103210002CF000411C4341EAD474049D22F000408C
:10322000B44205D86C422C4340EAD474B4420BD962
:103230009DED061B9DED040B02B0BDEC028B04B0AE
:10324000BDE8704000F0D6BDACF14054A4F17F64FD
:103250001C430BD0022404EAAC7444EAD274054344
:103260009FED538B9FED542B07D015E09DED040B84
:1032700051EC100B00F0E8FD42E0002C11BF012CD6
:103280009DED040B02B0BDEC028B04BF04B070BD19
:10329000022C38D0032C3BD00B439FED491B9FEDF4
:1032A0004A0B0AD0B14218D1B04209D121F0804175
:1032B00020F08040079105900FE0002A15DA10E019
:1032C000434B7B44002C08BF93ED000B0DD0012C29
:1032D00010D0022C17D0032C1AD0B0421DD1002AD6
:1032E00003DAB0EE410AF0EE610A02B0BDEC028BE7
:1032F00004B070BD93ED000B51EC100B00F053FEC9
:1033000041EC100BF1E7B0EE480AF0EE680AECE78A
:10331000B0EE420AF0EE620AE7E7401A00153C28D8
:10332000C8BF8DED000B19DCBCF1000FBEBF10F162
:103330003C0F9FED290B8DED000B0FDB9DED060B78
:1033400053EC102B9DED040B51EC100B00F01EFF05
:1033500000F0E2FD00F078FDCDE90001002C08BF8F
:103360009DED000BC1D0012C10D0022C9FED1C0B49
:1033700053EC102B9DED000B51EC100B0DD001F018
:10338000FFFA53EC182B01F0FBFAB9E7019880F033
:10339000004001909DED000BA7E701F0F1FA53EC1E
:1033A000182B01F015FAABE70000F07F00000000D9
:1033B000182D4454FB210940182D4454FB2109C009
:1033C000182D4454FB21F9BF182D4454FB21F93F1B
:1033D000A21A000000000000000000000000000031
:1033E000075C143326A6A13C10B52F499FED2C1B7A
:1033F0002DED020B84B0059820F000408842D8BF24
:103400009DED040B2DDD2949884209D1049840B96E
:103410004FF00100FCF730FF00F0F6FC06B010BDE5
:1034200005DB9DED040B00F0DBFC06B010BD68462B
:103430009DED040B00F0ECF810F0030004BF9DEDCF
:10344000021B9DED000B0CD001280ED09DED021B40
:103450009DED000B022817D0012000F029FC06B0DA
:1034600010BD00F0F1FA06B010BD9DED021B9DED00
:10347000000B012000F01CFC51EC100B00F093FD40
:1034800006B041EC100B10BD00F0DEFA51EC100B51
:1034900000F089FD06B041EC100B10BD00000000EB
:1034A0000000000000000000FB21E93F0000F07F69
:1034B0002DED020B019820F0004001909DED000BD6
:1034C00002B070470000000010B52F499FED2C1B83
:1034D0002DED020B84B0059820F000408842DCBF3F
:1034E00000209DED040B32DD2849884209D1049863
:1034F00040B94FF00100FCF7BFFE00F085FC06B0BC
:1035000010BD05DB9DED040B00F06AFC06B010BD9C
:1035100068469DED040B00F07BF810F0030011D01D
:10352000012818D09DED021B9DED000B02281AD03A
:1035300000F08AFA51EC100B00F035FD06B041ECBA
:10354000100B10BD9DED021B9DED000B012000F046
:10355000AFFB06B010BD9DED021B9DED000B00F012
:1035600073FA06B010BD012000F0A2FB51EC100B65
:1035700000F019FD06B041EC100B10BD000000007A
:103580000000000000000000FB21E93F0000F07F88
:1035900000B52DED048BB0EE409AF0EE609A83B04A
:1035A00051EC190B01F020F941EC180B18EE100A40
:1035B00018EE901A8DED008B002818BF01200843EB
:1035C00020F00040C0F17F6000F1E040C00F14D057
:1035D00019EE101A19EE900A8DED009B002918BF04
:1035E0000121084320F00040C0F17F6000F1E0407D
:1035F000C00F04BF0120FCF73FFEB0EE480A03B045
:10360000F0EE680ABDEC048B00BD00000000000075
:103610002DE9F14F04462DED020B2DED088B8AB0FC
:103620009FEDE70B80ED020B139EE74826F0004567
:1036300085420ADC9DED120B002084ED000B0AB0E0
:10364000BDEC088B03B0BDE8F08FE0489FEDE0AB28
:103650009FEDE1BBA84247DDE14F9FEDE39B9FED6E
:10366000E48B9DED120B53EC1A2B51EC100B002E3A
:103670001CDD01F085F941EC100BBD4208D053EC84
:103680001B2B51EC100B01F07BF9C4E900010BE09E
:1036900053EC192B51EC100B01F072F953EC182B71
:1036A00001F06EF9C4E900010120C8E700F0BAFC9E
:1036B00041EC100BBD4208D053EC1B2B51EC100B0E
:1036C00000F0B0FCC4E900010BE053EC192B51EC05
:1036D000100B00F0A7FC53EC182B00F0A3FCC4E97E
:1036E00000014FF0FF30AAE7C348A84279DB9DED07
:1036F000120B51EC100B00F00FFC41EC180B9FED7E
:10370000C00B53EC102B00F02FFF9FEDBF1B53ECB1
:10371000112B00F087FC00F091FE074600F0BDFE83
:1037200041EC190B53EC1A2B00F01EFF53EC182B35
:1037300001F04EF841EC180B53EC1B2B51EC190B1C
:1037400000F012FFDFF8C8A241EC100B4FEA155849
:103750000125FA4453EC102B51EC180B01F010F931
:10376000032DC4E900013DD0C1F30A5005EB45111A
:10377000A8EB00001139814234DA0AEB051BB0EEE8
:1037800048AA9BED000BF0EE68AA53EC102B51EC0D
:10379000190B00F0E9FE41EC1B0B51EC1A0B53EC3A
:1037A0001B2B01F0EDF841EC180B51EC1A0B53EC0C
:1037B000182B01F0E5F853EC1B2B01F0E1F89BED21
:1037C000020B41EC1A0B53EC102B51EC190B00F0CF
:1037D000CBFE53EC1A2B01F0D3F841EC100B6D1C0F
:1037E000B8E70EE0002EA8BF3846BFF628AF94ED2C
:1037F000000B51EC100B00F0D6FBC4E9000178423D
:103800001DE7C6F3130040F4801EC6F30A50A0F271
:10381000F530471100F01F05C5F12000DDF848B074
:1038200008900020069007900520EC467949002D6D
:1038300007EB0002794408BF51F8221009D051F873
:10384000223001EB8201AB404A68089922FA01F16B
:103850001943A1FB0E26A1FB0B131A449A4234BF55
:103860000123002303EB06080CEB8003D3E901A638
:103870000E448E4234BF0121002192448A4411B18A
:10388000924502D903E0924501D2012100E00021D6
:10389000C3E901A641444CF82010011EA0F101002B
:1038A000C4DC029800F10050850F0298DDE903673F
:1038B0008000DDF8148000F0F0FD41EC1A0B30467A
:1038C00000F002FE9FED541B53EC112B00F04CFE58
:1038D00041EC1B0B384600F0F7FD9FED511B53ECFC
:1038E000112B00F041FE41EC180B404600F0ECFDBE
:1038F0009FED4D1B53EC112B00F036FE41EC190BE4
:1039000051EC180B53EC192B00F08CFB53EC1B2BD8
:1039100000F088FB53EC1A2B00F084FBCDE9080182
:10392000002008909DED080B53EC1A2B51EC100B66
:1039300001F026F853EC1B2B01F022F853EC182B66
:1039400001F01EF853EC192B00F042FF9FED381BDD
:1039500053EC112B00F008FE9FED370B41EC180BD8
:1039600053EC102B9DED080B51EC100B00F0FCFDFF
:1039700053EC182B00F056FB9FED310B41EC180B6C
:1039800053EC102B9DED080B51EC100B00F0ECFDEF
:1039900053EC182B00F046FB41EC100B139810F081
:1039A000004F06D06D4251EC100B00F0FCFA41ECD8
:1039B000100B284684ED000B41E6000000000000DB
:1039C0000000000000000000FB21E93F7CD902401C
:1039D00000004054FB21F93F3163621A61B4D03DCD
:1039E000FB21F93F000000000000601A61B4D03DE7
:1039F0007370032E8A19A33BFB213941000000009C
:103A000083C8C96D305FE43F000000000000E03F64
:103A10001A16000068150000000000000000103EAB
:103A2000000000000000103C000000000000103A00
:103A3000182D4454FB21F93D3326A611460B113CA9
:103A400000000054FB21F93D10B52DED040B2DEDC8
:103A5000088B82B0B0EE419AF0EE619A0B9820F09C
:103A600000449FED4BABB4F1795F11DA9DED0A0B89
:103A700051EC100B00F0E2FC002801BFB0EE4A0A46
:103A8000F0EE6A0A02B0BDEC088B04BF04B010BDB2
:103A90009DED0A0B53EC102B51EC100B00F064FD64
:103AA00041EC180B3C480621B0EE480AF0EE680ADB
:103AB000784400F081F853EC182B51EC100B00F017
:103AC00053FD9DED0A0B41EC1B0B53EC192B51ECF4
:103AD000100B00F049FD41EC190B53EC1B2B51EC82
:103AE000180B00F041FD53EC192B00F049FF9FED3E
:103AF0002C0B41EC190B53EC102B51EC180B00F074
:103B000033FD41EC100B2848844210DA53EC192B9A
:103B100051EC100B00F034FF53EC1A2B00F058FE60
:103B200041EC100B02B0BDEC088B04B010BD1F4877
:103B3000A042BCBF9FED1E1B8DED001B06DBA4F554
:103B400000100190002000909DED001B51EC100B27
:103B500053EC112B00F014FF9DED000B41EC180B02
:103B600053EC102B51EC1A0B00F00AFF41EC1A0B2E
:103B700053EC192B51EC180B00F002FF53EC1A2BED
:103B800000F026FE41EC100BCCE700000000000026
:103B9000000000000000F03F841200000000000060
:103BA000000000000000E03F3333D33F0000E93F56
:103BB000000000000000D23F70B504462DED028BDE
:103BC0004D1E00EBC500B0EE408AF0EE608A90ED2D
:103BD000000B35F0060017D053EC182B51EC100BEE
:103BE00000F0C2FC41EC100B6D1E04EBC50090ED23
:103BF000001B51EC100B53EC112B00F013FA41ECAD
:103C0000100B35F00600E7D1022D36D0042D1CD064
:103C1000062D1CBFBDEC028B70BD53EC182B51EC74
:103C2000100B00F0A1FC94ED0A1B53EC112B00F0DB
:103C3000F9F953EC182B00F097FC94ED081B53ECAA
:103C4000112B00F0EFF941EC100B53EC182B51EC59
:103C5000100B00F089FC94ED061B53EC112B00F0C7
:103C6000E1F953EC182B00F07FFC94ED040B53ECBE
:103C7000102B00F0D7F941EC100B53EC182B51EC42
:103C8000100B00F071FC94ED021B53EC112B00F0B3
:103C9000C9F953EC182B00F067FC94ED001B53ECB2
:103CA000112B00F0BFF9BDEC028B41EC100B70BD85
:103CB00031B504462DED040B2DED0A8BB0EE41BA63
:103CC000F0EE61BA0B989DED0A0B20F00040B0F1C8
:103CD000795F0DDA51EC100BFEF75CFF042808BF8A
:103CE00000F0A2F89DED0A0BBDEC0A8B05B030BDCB
:103CF00053EC102B51EC100B00F036FC41EC180B80
:103D00009DED0A0B53EC182B51EC100B00F02CFC22
:103D100041EC190B2C48B0EE480AF0EE680A052178
:103D20007844FFF749FF9FED2ACBB0EE40AAF0EEB2
:103D300060AA9CB353EC1C2B51EC190B00F014FC43
:103D400041EC1C0B53EC1A2B51EC190B00F00CFC42
:103D50009FED210B41EC190B53EC102B51EC1B0B7D
:103D600000F002FC53EC192B00F00AFE53EC182B68
:103D700000F0FAFB53EC1B2B00F002FE53EC1C2B63
:103D800000F0FEFD9DED0A1B53EC112B00F020FD11
:103D9000BDEC0A8B05B041EC100B30BDFFE753ECD6
:103DA0001A2B51EC180B00F0DFFB53EC1C2B00F02E
:103DB00039F953EC192B00F0D7FB9DED0A1B53EC9E
:103DC000112B00F02FF9E3E71411000000000000B0
:103DD000495555555555C5BF000000000000E03F4E
:103DE00010B553EC102B51EC100B00F01BF941EC0B
:103DF000100B10BD10B553EC112B51EC100B00F053
:103E000011F941EC100B10BD9FED050B10B553ECF3
:103E1000102B51EC100B00F0B9F941EC100B10BD58
:103E200000000000000000009FED050B10B553ECF2
:103E3000102B51EC100B00F097FB41EC100B10BD58
:103E4000000000000000001010B541EC100BFFF75F
:103E500067F851EC100B10BD10B504466FF004006C
:103E6000FEF712FBE11704EB5171C1F3C701074ADA
:103E700011701046007800EB4001C1EBC0104FF606
:103E8000FF7101EAC0000249088010BDBA0000209D
:103E9000BC00002070B504464FF4077094FBF0F0AE
:103EA000C6B24FF4077094FBF0F100FB114085B2ED
:103EB00005E04FF4077000F009F8701EC6B2002E3E
:103EC000F7D115B1284600F001F870BD0146114A3E
:103ED00012884A434FF0E0235A6100229A611A4641
:103EE000126942F001021A6100BF4FF0E02210692E
:103EF00000F001021AB100F48032002AF5D04FF030
:103F0000E022126922F001024FF0E0231A61002240
:103F10009A617047BC00002082B0CDE9000121F019
:103F2000004001909DED000B02B051EC100B70476A
:103F3000FCF7B2FE00BFFEE700B52DED048B83B0A9
:103F400041EC190B00F050FC41EC180B18EE100A74
:103F500018EE901A8DED008B002818BF0120084341
:103F600020F00040C0F17F6000F1E040C00F14D0AD
:103F700019EE101A19EE900A8DED009B002918BF5A
:103F80000121084320F00040C0F17F6000F1E040D3
:103F9000C00F04BF0120FCF76FF951EC180B03B000
:103FA000BDEC048B00BD81F00041704780F0004003
:103FB000704721F00041704720F00040704700003A
:103FC00021F00042A2F16052B2F5801F01F00043DF
:103FD00028BFD2F17F6C0BD95FEA001C43EAC20212
:103FE00042EB507018BF704728BF20F001007047A7
:103FF000B2F5801FBCBF184670474FEA410C1CF554
:10400000001F02D2084600F01BBE70B500F056FB40
:1040100000000089FFF7F6BF4FF00040A0F58000D8
:104020007047000010B591EA030F48BF83F00043CA
:1040300000F1AE84841A71EB030C05D2121943EB24
:104040000C03001B61EB0C01DFF824E14FEA115473
:10405000A4EB135C1EEA430F18BF9EEA445F73D0C3
:1040600023EA0E03DCF1200E21EA045143F480130D
:1040700032D322FA0CFE10EB0E0023FA0CFE41EBB9
:104080000E01CCF1200E03FA0EFE10EB0E0051F1E2
:104090000001B1F5801FCCF1200E32D201EB0451AA
:1040A00012FA0EF2BDE8104058BF7047401C38BFEE
:1040B0005FEA420218BF7047002814BF20F00100D9
:1040C00041F100014FEA410313F5001F38BF70476B
:1040D000A1F1C04100F040BB012A43EB0302ACF167
:1040E000200CDCF11F0E32BF4FF0000E23FA0CF350
:1040F00010EB030041EB0451B4EB115FD0D0A1EB06
:10410000045101F5801149085FEA300001EB0451C8
:104110000ED350F1000038BF12FA0EFE08D1BDE8F0
:104120001040C9E7401C38BF5FEA4202CAD1C3E76A
:10413000BDE810404FEA410313F5001F38BF704738
:10414000A1F1C04100F008BB9EEA445F08D011EA2B
:104150005E0FBDE8104004BF01F000410020704731
:10416000BDE8104070B500F0A9FA00BF64FBBE3E88
:104170000000E0FF491058BFC1F140415B1058BF3B
:10418000C3F140438B42EFF3008070472DE9C041FB
:1041900030B4DFF8A0C23CEA111418BF3CEA131493
:1041A00000F0EC8081EA03051CEA111444EAD5749E
:1041B00018BF1CEA131500F0C780A4EB05044FF0EC
:1041C000004545EAC12145EAC32341EA505143EA8B
:1041D000525304F17F74994204F500344FEAC02031
:1041E0004FEAC22208BF904200F09C804FEA13655C
:1041F0000FF24016765D4FEA134506FB05F7C7F14F
:10420000807706FB07F74FEAD737A7FB03687642AC
:10421000C8F58038A7FB06CE38BFA8F1010807FB18
:1042200008E64FF0000EA6FB028CE6FB03CEDCF1A5
:10423000000CCEF1004E38BFAEF1010EA6FB0C58BB
:104240004FF000074FF00005E6FB0E87A1FB08C604
:10425000A0FB07CE16EB0E0645F10005E1FB076556
:1042600015F1E04E7EBFA4F580345FEA46066D414D
:1042700016F1800745F100054FEA17274FEA066659
:1042800047EA0567A6F1DE46B6F1805F4FEA1525DD
:104290001FD9384624F0010C05EBC471BCF1FE6F48
:1042A00001EB0C1102D8F0BCBDE8008124425CBFD8
:1042B00001F5801E9EEAC47F02D4F0BCBDE80081F7
:1042C000244238D4F0BCA1F1C041BDE8004100F067
:1042D00043BA4FEAD22242EA43524FEAD323A7FB22
:1042E00002864FEAD02040EA415007FB03661EEAEF
:1042F0000E0F4FEAD12105FB026658BFA6EB005610
:10430000B6EB00564FEA520E4EEAC37E18EB0E0E85
:1043100056EB530EBDD518EB02085E417F1C55F1DC
:104320000005B6E74FF480154FF000074FF0000688
:104330004FF00008ADE7F0BC4FF0000001F1C041C4
:1043400001F00041BDE8008111EA0C1F0CEA1315D1
:1043500000D00CE013EA0C1F00F025804FF00000A5
:10436000F0BC81EA030101F00041BDE80081F0BC2E
:10437000BDE8004181EA030100F0EEB9F0BCBDE800
:10438000004170B500F09AF9097EFC3E00F007B8D4
:1043900081EA03014FF0000001F00041704781EA1B
:1043A000030100F0D9B9F0BCBDE800414FF00000B6
:1043B00021497047FFFDFBF9F7F5F4F2F0EEEDEB64
:1043C000E9E8E6E4E3E1E0DEDDDBDAD8D7D5D4D313
:1043D000D1D0CFCDCCCBCAC8C7C6C5C4C2C1C0BF5F
:1043E000BEBDBCBBBAB9B8B7B6B5B4B3B2B1B0AF65
:1043F000AEADACABAAA9A8A8A7A6A5A4A3A3A2A149
:10440000A09F9F9E9D9C9C9B9A9999989797969503
:1044100095949393929191908F8F8E8E8D8C8C8B9F
:104420008B8A898988888787868585848483838227
:10443000828181800000FF070000F87F4FEA41037E
:104440004FEA5353A3F58063D3F11E03C8BFD3F1E2
:10445000210C0CDD4FF0004242EAC12242EA5052E8
:1044600032FA03FC8CEAE17CACEBE1707047102B74
:10447000C4BF0020704703F5787CBCF1FF3F04D037
:104480006FF0004282EA2100704770B500F016F923
:104490004992248000207047F2E710F0004248BFA4
:1044A0004042B0FA80F310FA03F10AD0C3F11D03C1
:1044B00003F580634FEA415002EB035202EBD12136
:1044C00070474FF000007047B0FA80F310FA03F124
:1044D0000AD0C3F11D0303F580634FEA41504FEA50
:1044E000035202EBD12170474FF0000070470000EB
:1044F00051EA030C17D41CF5801F58BFBCF5801F70
:1045000000F10680994218BF704708BF904270477B
:1045100007D711F5801F58BF13F5801F19D4994292
:104520007047894270471CF5801F08D5BCF5801F75
:10453000F7D58B4218BF704708BF824270474FF4CF
:10454000001C1CEB410F38BF1CEB430F01D28B4208
:10455000704770B500F0B2F8922449004FF0005156
:104560004FF08053FFF706BEDFF848C170B51CEA74
:10457000111E1EBF1CEA13159EEA0C0F95EA0C0FC4
:1045800000F06F8081EA030423EA4C134EEAD47EE4
:1045900021EA4C1141F4801143F48013AE44A1FB95
:1045A000024CA0FB0365AEF17F7E361955EB0C057E
:1045B000A1FB034C4CF10003A0FB021C16EB0C0604
:1045C000654153F10003094218BF46F0010613F498
:1045D000007F0BD14FEA03314FEA0530340341EA43
:1045E000155140EA16506FF003020AE04FEAC3216A
:1045F0004FEAC520F40241EA555140EA56506FF0A7
:10460000020202EB2E4201EB025585EACE710AD07E
:104610005FEA440C18BF24F0004450F1000041F15F
:10462000000120EAD47040F2FE7C624500D270BDE9
:10463000A84214BF4FF080444FF04044002E08BF02
:104640000024BEF1806FA8BFA1F1C041BDE8704059
:1046500080F282804FF0000001F1C04101F0004182
:1046600070479EEA0C0F0CEA131518BF95EA0C0F61
:1046700006D04FF0000081EA030E0EF0004170BD3D
:1046800000F01CF88900013E00F007B800F009B8FE
:104690004FEA430C5FEA5C5C08D081EA030100F05A
:1046A0005BB84FEA410C5FEA5C5CF6D14FF000006A
:1046B000014970470000FF070000F87F0EF1020E6D
:1046C0002EF0030E5EF8046B364205D4012A43EB4C
:1046D000030515F5001F12D8012841EB010C1CF54C
:1046E000001F0CD80ED14FEAD17C15F5001F0CEB42
:1046F0004C0C0CF1020C08BF4CEBD37C04E04FF0E7
:10470000080C01E04FEAD37C0CEB4C0526FA05F6C9
:1047100006F00706B6F1040C06D20EEB860CBDE8D7
:1047200070404CF0010C6047DFE80CF0090B02020E
:104730004FF000414FF00000A1F5002170BD194677
:104740001046012851EB010418BFD4F5001484BFB2
:10475000002001F0004170BD0808A0F500114FEAEB
:104760003101704753EA010C17D41CF5801F58BF64
:10477000BCF5801F00F106808B4218BF704708BF50
:104780008242704707D713F5801F58BF11F5801F6D
:1047900019D48B4270479B4270471CF5801F08D587
:1047A000BCF5801FF7D5994218BF704708BF9042EB
:1047B00070474FF4001C1CEB430F38BF1CEB410F3C
:1047C00001D2994270470FB40CBC03BCFFF7C1BEC5
:1047D00091EA030F10B581F000413FF52BAC83F057
:1047E000004300F0D5B800002DE9F04101F5801C30
:1047F000BCF5001FC0F2A9804FEA115C21EA0C5100
:104800000CF1FD0C41F480115FEA5C0C0CF5C07CEE
:1048100001D34000494130A4890241EA9051870206
:104820008E0E0A0CA45D04FB04F602FB06F6C6F12C
:104830004046A4FB0662F60D46EA422606FB06F455
:10484000A4FB01235242C3F1404338BF5B1EA6FBC9
:1048500002420024E6FB0324D20B42EA4446A6FBB4
:104860000623A1FB02E2A3FB07E4E3FB61426442EF
:10487000C2F1404E38BFAEF1010EA6FB04234FF04B
:104880000002E6FB0E32A2FB03463400E2FB626448
:10489000A1FB06E6A4FB07E8E4FB61687642C8F1E9
:1048A000405838BFA8F10108A2FB06E4A3FB08E5C5
:1048B000E2FB6854A1FB05E6A7FB04E8E1FB648684
:1048C00018F1200556F10006A809A8F11B08B10946
:1048D00008F03F08B8F10A0F40EA86601CD901EBE6
:1048E0000C51BDE8F08100BFFCF5EEE8E2DDD8D365
:1048F000CFCBC7C3C0BDB9B6B4B1AEACA9A7A5A351
:10490000A19F9D9B9A9896959392908F8D8C8B8961
:104910008887868584838281A0FB006800FB01F282
:1049200008EB4208B8EB872807D5341858EB010488
:10493000D5D5401C51F10001D1E7341A78EB0104C0
:10494000CDD4401E71F10001C9E75FEA4C0C5FEA6B
:104950009C5C0DD105D34FF0000001F00041BDE893
:10496000F081BDE8F04170B5FFF7A8FE6DDBFFBE3A
:10497000BDE8F0414FF00000004970470000F87FAB
:1049800010B591EA030F48BF83F000433FF552ABE7
:10499000841A71EB030C07D212198CF0004C43EB14
:1049A0000C03001B61EB0C01DFF8A4E14FEA11548A
:1049B000A4EB135C1EEA430F18BF9EEA445F00F0AD
:1049C000B08023EA6E03524221EA0451C3EB6E0326
:1049D00038BF5B1EDCF1200E25D322FA0CFE10EB53
:1049E0000E0043FA0CFE41EB0E01CCF1200E03FA4F
:1049F0000EFE10EB0E0051F10001CCF1200E29D477
:104A000012FA0EF201EB0451BDE8104058BF704796
:104A1000401C1CBFB2F1004F704700280CBF491C5E
:104A200020F00100704712EB020E43EB030218BFA7
:104A30004FF0010E4EEA4202ACF1200CDCF11E0EEA
:104A400054D943FA0CFE10EB0E0051F1FF31CCF1BA
:104A50001E0ED5D50EF1010E12FA0EFE404141EBAD
:104A6000010101EB445C5FEA5C5C10D910EBDE7085
:104A700001EB045138BFBEF1004FBDE8104018BF34
:104A8000704700280CBF491C20F00100704730D24D
:104A90004FEAD42C11F5001124F400641BD0B1FAB4
:104AA00081F20B3AA41AA41ED2F12003914030FAED
:104AB00003F31943904001EBCC71002C01EB04513E
:104AC000BDE81040A8BF704701F1C0414FF00000A1
:104AD00001F000417047B0FA80F310FA03F100D101
:104AE00010BDE41A173C4805C90AE4E701EB04517C
:104AF00010BD491001EB0451BDE810404FEA3000F1
:104B000002E04FF0000170474A0008BF0042F8D0B1
:104B1000B2F5001F28BF704701F000414FF00000C0
:104B200070479EEA445F07D011EA5E0FBDE810406F
:104B300004BF002100207047BDE8104070B5FFF7AA
:104B4000BDFD00BF40DFF63E83F0004110467047D8
:104B50000000E0FF43004FEAD30C4FEA3C0C434017
:104B60001FBF40070CF1605113F0FE4F70471CF05F
:104B7000006F03D100200CF0004170470CF000439F
:104B800043EA507010B540EACC0000F00EF800BFC8
:104B9000000000924FEA0001FFF7DEBD4FF0004138
:104BA0004FF00000A1F5002170470EF1020E2EF02B
:104BB000030E5EF8044B244204D44FEA4102B2F1E2
:104BC0007F4F11D84FEA4003B3F17F4F0CD80ED17D
:104BD0004FEAD07CB2F17F4F0CEB4C0C0CF1020C85
:104BE00008BF4CEBD17C04E04FF0080C01E04FEA29
:104BF000D17C0CEB4C0324FA03F404F00704B4F169
:104C0000040C06D20EEB840CBDE810404CF0010CF5
:104C10006047DFE80CF0070802024FF00040A0F503
:104C2000800010BD0846420018BFD2F1807288BFD4
:104C300000F0004010BD4FF04070E1EE100A7047E8
:104C4000FF2141EAD050C00570470000000000007D
:104C5000555555555555C53F7D6FEB0312D6D4BFFD
:104C60005544880E55C1C93F3B8F68B52882A4BF03
:104C700088B20175E0EF493F09F7FD0DE13D023FC4
:104C80004B2D8A1C273A03C0C88A599CE52A00404C
:104C900059018D1B6C06E6BF82922EB1C5B8B33F99
:104CA0004FBB610567ACDD3F182D4454FB21E93F44
:104CB0009BF681D20B73EF3F182D4454FB21F93F33
:104CC000E2652F227F2B7A3C075C143326A6813CB9
:104CD000BDCBF07A8807703C075C143326A6913C64
:104CE000C4EB98999999C9BF711623FEC671BCBFD0
:104CF0006D9A74AFF2B0B3BF9AFDDE522DDEADBF38
:104D00002F6C6A2C44B4A2BF0D5555555555D53F4F
:104D1000FF8300922449C23F6E204CC5CD45B73F6A
:104D2000513DD0A0660DB13FEB0D76244B7BA93FE2
:104D300011DA22E33AAD903F4C5555555555A53FF4
:104D40007751C1166CC156BF9015CB19A001FA3E20
:104D5000AD529C804F7E92BEC4B1B4BD9EEE213E4A
:104D6000D43888BEE9FAA8BD0000000000000000A9
:104D700000004054FB21F93F3163621A61B4D03D19
:104D80000000601A61B4D03D7370032E8A19A33BF2
:104D90000000002E8A19A33BC14920259A837B3944
:104DA00000000000000000006E83F9A22915444EA7
:104DB000D15727FCC0DD34F5999562DB4190433C27
:104DC000AB6351FE61C5BBDE3A6E24B7E0D24D4203
:104DD000EA2E49061C92D1091CEB1DFE3EA729B103
:104DE000F53582E88444BB2E26709CE9417E5FB491
:104DF00039D69139F43953838B5F849C3B28F9BDB4
:104E0000FF97F81F0F9805DE8B112FEF1F6D0A5AC1
:104E1000CF7E366DB709CB27663F464F2DEA5F9EA2
:104E2000C7BA27757BF1E5EBF739073DEA92528A5D
:104E3000B15FFB6B085D8D1FA6F810111111813F4A
:104E4000D561C119A0012ABF7DFEB157E31DC73E40
:104E5000EB9C2B8AE6E55ABE7CD5CF5A3AD9E53D84
:104E6000804E000800000020C0000000C4010008BF
:104E7000404F0008C0000020A0070000E00100082B
:104E800000000000010203040102030406070809F0
:104E900000000000000000000000000000401C4670
:104EA000DB0F49400000000000000000000000008F
:104EB00000000000000000000000000000000000F2
:104EC00000000000000000000000000000000000E2
:104ED0000000000000007A4500007A450000A04173
:104EE000000088410000E0400000000000000000D9
:104EF00000000000000000000000000000008841E9
:104F0000000020420000F04101000000000000000D
:104F1000000000001F000000000000000000000072
:104F2000500000000004000400040004030300001B
:104F30000000000000000000000000000000000071
:040000050800018965
:00000001FF
