:020000040800F2
:100000001808002029020008DD100008810E0008F1
:10001000DD0F000889030008AD1B00080000000088
:1000200000000000000000000000000011140008A3
:100030000D0D0008000000006D11000829150008D2
:10004000430200084302000843020008430200087C
:10005000430200084302000843020008430200086C
:10006000430200084302000843020008430200085C
:10007000430200084302000843020008430200084C
:10008000430200084302000843020008430200083C
:100090008D040008430200084302000843020008E0
:1000A000430200084302000843020008430200081C
:1000B000430200084302000843020008430200080C
:1000C00043020008430200084302000843020008FC
:1000D0004302000881180008430200084302000898
:1000E00043020008430200084302000843020008DC
:1000F00043020008430200084302000843020008CC
:100100004302000843020008951500084302000856
:1001100043020008430200084302000843020008AB
:10012000430200084302000843020008430200089B
:10013000430200084302000843020008430200088B
:10014000BD040008430200084302000843020008FF
:10015000430200084302000843020008430200086B
:10016000430200084302000843020008430200085B
:10017000430200084302000843020008430200084B
:10018000430200084302000800F002F800F03CF8C7
:100190000AA090E8000C82448344AAF10107DA45E2
:1001A00001D100F031F8AFF2090EBAE80F0013F0F8
:1001B000010F18BFFB1A43F001031847C81A0000CB
:1001C000E81A0000103A24BF78C878C1FAD852075C
:1001D00024BF30C830C144BF04680C6070470000C1
:1001E0000023002400250026103A28BF78C1FBD840
:1001F000520728BF30C148BF0B6070471FB501F0E0
:100200003BFD1FBD10B510BD00F036F81146FFF7DD
:10021000F5FF01F02DFD00F054F803B4FFF7F2FFF5
:1002200003BC00F057F80000094880470948004720
:10023000FEE7FEE7FEE7FEE7FEE7FEE7FEE7FEE796
:10024000FEE7FEE704480549054A064B70470000F3
:100250002D15000889010008180200201808002048
:1002600018040020180400207047704770470000F1
:1002700000487047B40100207546FFF7F9FFAE460D
:1002800005006946534620F00700854618B020B5A2
:10029000FFF7D8FFBDE820404FF000064FF0000701
:1002A0004FF000084FF0000B21F00701AC46ACE81E
:1002B000C009ACE8C009ACE8C009ACE8C0098D468B
:1002C000704710B50446AFF300802046BDE81040EB
:1002D000FFF7A3BF01491820ABBEFEE726000200CE
:1002E0007047000010B51048006801280DD10121A9
:1002F0000E4800F079FD00F075FE00F08BFE0C4812
:100300000068401C0A49086003E000F079FD00F035
:1003100097FD07480068B0F57A7F04DD01200549A4
:10032000086000F05DFE10BD1C00002000080240C7
:10033000200000202400002008B54FF4C06000F029
:100340000BFF4FF4A06000F007FFA82001F030FC85
:1003500000F026FE42F2107001F0F0F9532140F255
:10036000E73001F051F900201E23062205210090FC
:1003700000F00CF84FF47A7001F038FC01200149CC
:10038000086008BD1000002000BFFEE72DE9F04125
:100390008AB004460D4616461F46DDF8408001210E
:1003A000084600F0E5FE0121480600F0F1FE4FF49A
:1003B000C050089002208DF8240000208DF82600FF
:1003C00003208DF8250001208DF8270008A92D486D
:1003D00000F09DFC09220B212A4800F0E0FC0922D4
:1003E0000C21284800F0DBFC00208DF81A008DF865
:1003F0001B008DF81C0001208DF81D0000208DF8D9
:100400001E008DF81F008DF816808DF817408DF8AE
:1004100018608DF81950ADF8147005A91A4800F04D
:10042000D2F900208DF80E008DF80F0001208DF814
:1004300010000020ADF80400ADF80600ADF808008B
:10044000ADF80A00ADF80C0001208DF8110001A8EC
:1004500000F09CF8012202210B4800F0ABF91420B7
:100460008DF8000001208DF8010000208DF80200B9
:1004700001208DF80300684600F032FE0AB0BDE8A6
:10048000F0810000000002400064004000B585B02B
:100490000221084800F0FEF828B101200649086052
:1004A000684600F029FF0221024800F01BF805B061
:1004B00000BD0000006400401C00002010B50221B7
:1004C000064800F0E7F820B1054A0021034800F093
:1004D00004FA0221014800F005F810BD0068004050
:1004E00040010020B1F5007F3AD00FDC202928D050
:1004F00006DC01291CD004291DD0082940D11DE0AB
:10050000402921D0B1F5807F3AD126E0B1F5004FE6
:1005100031D006DCB1F5806F25D0B1F5006F2FD159
:1005200024E0B1F5803F12D0B1F5003F28D111E0B1
:10053000154A826025E00822C26022E01022C260D3
:100540001FE0082202611CE01022026119E008226B
:10055000426016E01022426013E00422426010E084
:10056000042242600DE0042242600AE0002282611F
:100570000422426005E0002282610422426000E021
:1005800000BF00BF704700000101010010B500214D
:10059000837A012202FA03F13D4A126842F0010215
:1005A0003B4B1A603A4A1C3212688A43384B1C3360
:1005B0001A60027BCAB9364A0C3212688A43344B3D
:1005C0000C331A604288C38842EA0343304A4032FF
:1005D000847A42F834300288838842EA03432C4A02
:1005E0004032847A02EBC4025360027B012A19D1A3
:1005F000274A0C3212680A43254B0C331A60428892
:10060000038842EA0343224A4032847A42F8343073
:10061000C288838842EA03431D4A4032847A02EB4F
:10062000C4025360C27A3AB9194A121D12688A4349
:10063000174B1B1D1A6006E0154A121D12680A436B
:10064000134B1B1D1A60028932B9114A1432126809
:100650008A430F4B14331A600289012A06D10C4ACF
:10066000143212680A430A4B14331A60427B012A7F
:1006700006D1074A1C3212680A43054B1C331A6024
:10068000034A126822F00102014B1A6010BD0000FB
:100690000066004070B504460D460026606928409B
:1006A000002871D0B5F5807F5CD010DC082D35D0E6
:1006B00006DC012D20D0022D24D0042D72D127E09C
:1006C000102D31D0202D35D0402D6BD138E0B5F52F
:1006D000004F60D009DCB5F5007F49D0B5F5806FDB
:1006E0004CD0B5F5006F5DD14FE0B5F5803F2DD012
:1006F000B5F5003F56D12FE0A0682D4900F0F8F97C
:10070000064651E0E068032100F0F2F906464BE0AE
:10071000E068082100F0ECF9064645E0E0681021A9
:1007200000F0E6F906463FE02069032100F0E0F919
:10073000064639E02069082100F0DAF9064633E080
:100740002069102100F0D4F906462DE060680821E8
:1007500000F0CEF9064627E06068102100F0C8F9E5
:10076000064621E0A069012100F0C2F906461BE01F
:10077000A069022100F0BCF9064615E0A069042139
:1007800000F0B6F906460FE00FE0A069702100F016
:10079000AFF9064608E06068042100F0A9F90646B2
:1007A00002E0FFE7002600BF00E00026304670BDF3
:1007B000010101001AB143690B43436102E043693F
:1007C0008B434361704730B5024600200023146814
:1007D00024F002041460146844F00104146000E082
:1007E0005B1C546804F001041CB94FF6FF74A3426B
:1007F000F6D1546804F001040CB900206CE08C7947
:10080000012C04D1146844F08004146003E01468DF
:1008100024F080041460CC79012C04D1146844F0D5
:100820004004146003E0146824F0400414600C7A5F
:10083000012C04D1146844F02004146003E014680F
:1008400024F0200414604C7A012C04D1146844F084
:100850001004146003E0146824F0100414608C7A0F
:10086000012C04D1146844F00804146003E01468F7
:1008700024F008041460CC7A012C04D1146844F0EC
:100880000404146003E0146824F0040414608C78F9
:10089000A407CD7844EA05640D7944EA05444D790E
:1008A00044EA05540D886D1E2C43D461146824F06D
:1008B00001041460002300E05B1C546804F0010490
:1008C0001CB14FF6FF74A342F6D1546804F0010442
:1008D0000CB1002000E0012030BD10B500F5D87348
:1008E00003EB01131B6803F004031372137A53B96B
:1008F00000F5D87303EB01131B6840F2FF7404EAA0
:100900005353136009E000F5D87303EB01131B6820
:100910006FF0604404EAD303536000F5D87303EB2F
:1009200001131B6803F00203537200F5D87303EB45
:1009300001135B6803F00F03937200F5D87303EBA8
:1009400001135B681B0AD37400F5D87303EB011322
:100950009B68D37200F5D87303EB01139B681C0AE4
:10096000147300F5D87303EB01139B681C0C5473CC
:1009700000F5D87303EB01139B681B0E937300F50E
:10098000D87303EB0113DB68D37300F5D87303EB63
:100990000113DB681C0A147400F5D87303EB011310
:1009A000DB681C0C547400F5D87303EB0113DB688F
:1009B0001B0E937421B9C36843F02003C36003E0A6
:1009C000036943F02003036110BD10B50246002007
:1009D000936803F08063B3F1806F00D110E09368F7
:1009E00003F00063B3F1006F01D1012008E09368C8
:1009F00003F08053B3F1805F01D1022000E00420B6
:100A0000042874D002F5C07303EB00131B6803F0D5
:100A1000010402F5C07303EB00131C600B7A7BB971
:100A20004B7A0C8843EA445302F5C07404EB00147B
:100A30002468234302F5C07404EB0014236010E023
:100A40000B7A4C6843EAC4034C7A234302F5C07422
:100A500004EB00142468234302F5C07404EB001473
:100A600023608B7A03F00F038B7202F5C07303EBE4
:100A700000135B6823F00F0402F5C07303EB00134F
:100A80005C6002F5C07303EB00135B688C7A234350
:100A900002F5C07404EB001463608B7B1C064B7B77
:100AA00044EA03440B7B44EA0323CC7A234302F554
:100AB000C07404EB0014A3608B7C1C064B7C44EADE
:100AC00003440B7C44EA0323CC7B234302F5C0742C
:100AD00004EB0014E36002F5C07303EB00131B6822
:100AE00043F0010402F5C07303EB00131C6010BD5A
:100AF0000246002002EA01030BB1012000E00020C1
:100B0000704721B1026842F00102026003E002680E
:100B100022F0010202607047016821F001010160CA
:100B20000021016041608160C1600161212141615A
:100B30004A49884204D13D21484A103A91608CE0EC
:100B400046491831884205D14FF47461434A103A3E
:100B5000916082E041493031884205D14FF47411EF
:100B60003E4A103A916078E03C494831884205D1CC
:100B70004FF07461394A103A91606EE03749603144
:100B8000884204D13649354A103AD16065E033498C
:100B90007831884204D13349304A103AD1605CE060
:100BA0002E499031884204D12F492C4A103AD16005
:100BB00053E02A49A831884205D14FF03D51274AD8
:100BC000103AD16049E02949884204D13D21274AA1
:100BD000083A116041E025491831884205D14FF4A7
:100BE0007461224A083A116037E020493031884266
:100BF00005D14FF474111D4A083A11602DE01B49CC
:100C00004831884205D14FF07461184A083A1160A2
:100C100023E016496031884204D11149134A121F5A
:100C200011601AE011497831884204D10D490F4A08
:100C3000121F116011E00D499031884204D10A4918
:100C40000A4A121F116008E00849A831884204D1FD
:100C50004FF03D51054A121F11607047106002406D
:100C60003D000020400F002000003D2010640240A5
:100C700021B1026842F48022026003E0026822F49B
:100C800080220260704722B1036843F400230360AE
:100C900003E0036823F40023036001617047014609
:100CA00000200A6802F400220AB1012000E00020BE
:100CB0007047000010B500220268134B1A40CC6840
:100CC0000B6823434C6923438C692343CC6923433A
:100CD0000C6A23434C6A23438C6A23434C6B2343A3
:100CE0008C6B23431A430260426922F00702D1E968
:100CF0000B3423431A4342610B6943604B688360A2
:100D00008B68C36010BD00003F801CF07047F0B5D9
:100D10000A4600210023002400BF3DE0012505FA1A
:100D200001F3156805EA03049C4234D105684F00BD
:100D30000326BE40B543056015794E00B5400668F0
:100D4000354305601579012D02D01579022D16D194
:100D500085684F000326BE40B543856055794E0037
:100D6000B540866835438560456801268E40B543A9
:100D70004560456896798E40B6B235434560C56892
:100D80004F000326BE40B543C560D5794E00B5403F
:100D9000C6683543C560491C1029BFD3F0BDF0B506
:100DA000002300244D07ED0E02FA05F3CE1000F1EA
:100DB000200555F826504E07F70E0F26BE40B543C6
:100DC000CF1000F1200646F82750CE1000F1200584
:100DD00055F8265045EA0304CE1000F1200545F8E9
:100DE0002640F0BD41837047018370474FF6FF7185
:100DF00001600021017141718171C1717047000072
:100E000000B585B0002000900B48019004208DF8BB
:100E1000080000208DF8090002208DF80A000A2041
:100E20008DF80B0007218DF80C1069460348FFF779
:100E3000CCFD05B000BD00009E010800006400402C
:100E400000B585B0002000900B48019004208DF87B
:100E5000080000208DF8090002208DF80A000A2001
:100E60008DF80B0007218DF80C1069460348FFF739
:100E7000ACFD05B000BD00009E0110000064004004
:100E800000BFFEE7434890F90000401CC0B1424853
:100E9000807C00F00100414988703F48807CC0F3AD
:100EA00040013E4801723C48807CC0F380013B48D1
:100EB00081733948807CC0F3C0013848017517E060
:100EC0003548807CC0F34000344988703248807CCB
:100ED00000F00101314801722F48807CC0F3C0014D
:100EE0002E4881732C48807CC0F380012B4801750B
:100EF0002948807CC0F30011284881762648807CF0
:100F0000C0F34011254880F820102348807CC0F3AE
:100F10008011224880F826101F48807CC1091F4894
:100F200080F82C101C48C07C00F001011B4880F8A0
:100F300032101948C07CC0F34001184880F83810BE
:100F40001548C07CC0F38001144880F83E10124858
:100F5000C07CC0F3C001114880F844100E48C07C2A
:100F6000C0F300110D4880F84A100B48C07CC0F354
:100F700040110A4880F850100748C07CC0F3801127
:100F8000064880F856100448C07CC109034880F820
:100F90005C107047700000205C00002054010020AD
:100FA0001CB50121042000F0E3F80320009001208B
:100FB0008DF8040000208DF8060003208DF8050050
:100FC00001208DF8070069460348FFF7A0FE0321C2
:100FD0000148FFF707FF1CBD0008024000BFFEE705
:100FE0007047000000B585B00020009007480190D0
:100FF00004208DF8080000208DF809008DF80A0003
:1010000069460348FFF7E1FC05B000BD8101080017
:101010000064004000B585B00020009007480190B2
:1010200004208DF8080000208DF809008DF80A00D2
:1010300069460348FFF7C9FC05B000BD81011000F7
:101040000064004010B586B00446002001900E48B0
:10105000029004208DF80C0000208DF80D00042073
:101060008DF80E00200E8DF80F00210C8DF8101059
:10107000210A8DF811108DF8124001A90348FFF7DD
:10108000A4FC06B010BD000086010800006400400A
:1010900010B586B00446002001900E48029004204E
:1010A0008DF80C0000208DF80D0004208DF80E0046
:1010B000200E8DF80F00210C8DF81010210A8DF8EC
:1010C00011108DF8124001A90348FFF77EFC06B00D
:1010D00010BD000086011000006400407047000051
:1010E00070B5002100230F22C4781CB3174C24686C
:1010F00004F4E064C4F5E064C4F30721C1F104041E
:10110000E3B20A4144789C40E1B284781440214320
:101110000C07210E0E4C05786155047804F01F056C
:101120000124AC4005786D11AD0005F1E025C5F84E
:10113000004109E0047804F01F050124AC40054D8E
:101140000678761145F8264070BD00000CED00E0F1
:1011500000E400E080E100E002490143024A11603E
:10116000704700000000FA050CED00E07047000039
:1011700029B1064A12680243044B1A6004E0034A8C
:1011800012688243014B1A607047000030380240F9
:1011900029B1064A12680243044B1A6004E0034A6C
:1011A00012688243014B1A607047000040380240C9
:1011B00029B1064A12680243044B1A6004E0034A4C
:1011C00012688243014B1A607047000020380240C9
:1011D00029B1064A12680243044B1A6004E0034A2C
:1011E00012688243014B1A60704700004438024085
:1011F00029B1064A12680243044B1A6004E0034A0C
:1012000012688243014B1A60704700002438024084
:10121000F0B5002100220024022500260223324FCF
:101220003F6807F00C0121B1042905D0082937D106
:1012300005E02E4F076036E02D4F076033E02A4F60
:101240003F1F3F68C7F38056274F3F1F3F6807F097
:101250003F036EB1264FB7FBF3F7DFF88CC0ACF15C
:10126000040CDCF800C0CCF3881C07FB0CF40CE089
:101270001E4FB7FBF3F7DFF870C0ACF1040CDCF8DD
:1012800000C0CCF3881C07FB0CF4174F3F1F3F68CE
:10129000C7F301477F1C7D00B4FBF5F7076002E050
:1012A000124F076000BF00BF0F4F3F6807F0F0010B
:1012B0000909104F7A5C0768D74047600A4F3F68BA
:1012C00007F4E051890A0B4F7A5C4768D740876082
:1012D000054F3F6807F46041490B064F7A5C476849
:1012E000D740C760F0BD0000083802400024F40079
:1012F00000127A000000002010B5044622460021AA
:101300000948FFF7EAFA607A012806D0022805D0DA
:10131000042804D0082804D102E003E002E001E040
:1013200000E000BF00BF10BD0064004000B50246F1
:1013300002B900BD1078517840EA0120C0F30A00DC
:10134000314988805078C010917840EA4110C0F34C
:101350000A002D49C88090788011D17840EA810038
:10136000117940EA8120C0F30A00274908801079EA
:101370004010517940EAC110C0F30A002249488068
:1013800050790011800808725079C0F3011048723A
:101390009079D17940EA012000B21B494881107A46
:1013A000517A40EA012001B217488181907AD17ABE
:1013B00040EA012001B21448C181117B0174517BC4
:1013C0004174907B10498874D17B0F48C1740F48D9
:1013D00090F90000401C90B90B4801880088A0F5E6
:1013E0008060022303FB10100749088008464188EB
:1013F0004088A0F5806003FB101003494880FFF788
:1014000041FD00BF95E700005C0000207000002057
:10141000704700000CB5002001900090344800682F
:1014200040F480303249086000BF3148006800F461
:10143000003000900198401C0190009818B9019864
:10144000B0F5A04FF1D12A48006800F4003010B187
:101450000120009001E0002000900098012846D172
:1014600023484030006840F08050214940310860F6
:101470002048006840F440401E4908601C4808307D
:1014800000681B49083108600846006840F40040C5
:1014900008600846006840F4A05008601648091F1C
:1014A0000860081F006840F08070091F086000BFD6
:1014B0000F48006800F000700028F9D040F2057075
:1014C0000E4908600A480830006820F00300084907
:1014D000083108600846006840F00200086000BF5C
:1014E00003480830006800F00C000828F8D10CBD53
:1014F000003802400070004008544007003C0240A1
:10150000042808D14FF0E021096941F004014FF0AF
:10151000E022116107E04FF0E021096921F00401A8
:101520004FF0E022116170477047000010B5154878
:10153000006840F47000134908601348006840F0E8
:1015400001001149086000200F49083108600E4869
:1015500000680E4908400C4908600D48091D0860E4
:10156000081F006820F48020091F08600020064939
:101570000C310860FFF74EFF4FF0006001498039E1
:10158000086010BD88ED00E000380240FFFFF6FE65
:101590001030002410B50121164800F072F820B375
:1015A00015480068401C144908601448006810B9C8
:1015B000FEF798FE19E0104800684FF4FA71B0FB8E
:1015C000F1F201FB120080B90B48006840F2EE21F5
:1015D000B0FBF1F201FB120018B909480068FFF7EF
:1015E00031FD08480068FFF753FD0121014800F074
:1015F00039F810BD000C0040140000202400002029
:101600004C000020500000207FB505460C4601210B
:101610000820FFF7BDFD0295ADF804400020ADF8AD
:101620000600ADF80C0001A90D4800F045F80122B4
:1016300011460B4800F036F80121094800F015F872
:1016400032208DF8000001208DF8010003208DF874
:10165000020001208DF803006846FFF741FD7FBDC1
:10166000000C0040CA430282704721B1028842F058
:101670000102028004E002884FF6FE731A400280E5
:10168000704730B50246002000230024158A05EA81
:101690000103958905EA010413B10CB1012000E0B2
:1016A000002030BD1AB183890B43838102E0838916
:1016B0008B4383817047000000220288184B9842B8
:1016C0000ED0184B98420BD0B0F1804F08D0164B7B
:1016D000984205D0154B984202D0154B984204D140
:1016E0004FF68F731A404B881A43124B984207D01B
:1016F000114B984204D04FF6FF431A400B891A430E
:1017000002804B68C3620B880385054B984202D068
:10171000044B984201D18B7A038601238382704760
:1017200000000140000401400004004000080040A7
:10173000000C0040001000400014004010B596B0AE
:10174000044601210846FFF713FD01211020FFF791
:101750003FFD07220A214548FFF721FB14A8FFF7A8
:1017600045FB4FF48060149002208DF85400012056
:101770008DF8570002208DF8550000208DF8560096
:1017800014A93A48FFF7C3FA394800F0D1F810A875
:1017900000F000FA374810900020ADF84400ADF892
:1017A00046004FF48060ADF848000420ADF84A00D0
:1017B0000020ADF84C0010A92D4800F081F901215E
:1017C0002B4800F09FF8012240F22441284800F005
:1017D00051F901224021264800F0A0F82648FFF7E1
:1017E0009BF901218805FFF7C3FC4FF000600090D2
:1017F0001F48001D019021480290002003901420F2
:101800000490002005904FF480600690002007901F
:1018100008904FF4807009904FF440300A900020F7
:101820000B900C900D900E90002214491248FFF777
:101830002AFA01211048FFF71BFA69460E48FFF704
:1018400039FA01210C48FFF75CF925208DF83C009E
:1018500002208DF83D008DF83E0001208DF83F00FC
:101860000FA8FFF73DFC16B010BD000000000240BD
:1018700000100140A0860100406402407800002072
:1018800010B540F224411C4800F0CAF898B31A4839
:101890000088194880881948FFF701FAB0B900217B
:1018A0001648FFF72EF914201449091D08604FF45B
:1018B000002213491148FFF7E6F901210F48FFF70D
:1018C00020F90F486438FFF731FD14E000210B4880
:1018D000FFF717F914200949091D0860002208497B
:1018E00064390648FFF7CFF901210448FFF709F9E9
:1018F0000348FFF71BFD10BD00100140406402408B
:10190000DC00002021B1828942F40052828104E08F
:1019100082894DF6FF731A40828170471AB1838A1B
:101920000B43838202E0838A8B43838270470000EB
:1019300010B504463248844208D101211020FFF737
:1019400057FC00211020FFF753FC57E02D4884423C
:1019500009D101214804FFF72BFC00214FF400308E
:10196000FFF726FC4AE02848844209D10121880477
:10197000FFF71EFC00214FF48020FFF719FC3DE02B
:101980002248844209D10121C804FFF711FC00213B
:101990004FF40020FFF70CFC30E01D48844209D1D1
:1019A00001210805FFF704FC00214FF48010FFF728
:1019B000FFFB23E01748844208D101212020FFF7D4
:1019C00017FC00212020FFF713FC17E01248844287
:1019D00009D101218807FFF7EBFB00214FF0804080
:1019E000FFF7E6FB0AE00D48844207D101214005DC
:1019F000FFF7DEFB00216005FFF7DAFB10BD0000FA
:101A0000001001400044004000480040004C0040ED
:101A1000005000400014014000780040007C00406D
:101A200070B50246002400230025002040F66A1607
:101A3000B14200D100BFC1F3421501F01F030126DE
:101A400006FA03F3012D02D19689334006E0022DF8
:101A500002D1168A334001E0968A33400C120126E7
:101A600006FA04F41688344013B10CB1012000E0EA
:101A7000002070BDF0B5034600240026002500209C
:101A800040F66A17B94200D100BF1846C1F34214AC
:101A900001F01F06012707FA06F5012C01D10C30D1
:101AA00004E0022C01D1103000E014301AB10768B4
:101AB0002F43076002E00768AF430760F0BD0000F6
:101AC0002DE9FF4705460E460024A14600BFA0466B
:101AD000B08900B100BF2C8A24F44054F08804433C
:101AE0002C82AC8941F20C608443B0883189084370
:101AF000718908430443AC81AC8A24F44074B089F2
:101B00000443AC826846FFF783FB2048854202D03D
:101B10001F48854202D1DDF80C9001E0DDF8089005
:101B2000A88900F4004040B109EBC90000EB09109E
:101B300031684900B0FBF1F707E009EBC90000EBA1
:101B4000091031688900B0FBF1F76420B7FBF0F0B1
:101B500004012009642101FB1078A88900F40040E9
:101B600040B1322000EBC800B0FBF1F000F00700FC
:101B7000044308E0322000EB08106421B0FBF1F0D0
:101B800000F00F0004432C81BDE8FF8700100140E6
:101B9000001401404FF41651016000218180C18082
:101BA00001810C21418100218181704700BFFEE746
:101BB00010B504466FF00400FFF7A2FCE11704EB38
:101BC0005171C1F3C701074A11701046007800EB4C
:101BD0004001C1EBC0104FF6FF7101EAC00002499D
:101BE000088010BD720000207400002070B504460B
:101BF0004FF4077094FBF0F0C6B24FF4077094FBFB
:101C0000F0F100FB114085B205E04FF4077000F0E1
:101C100009F8701EC6B2002EF7D115B1284600F0A3
:101C200001F870BD0146114A12884A434FF0E02383
:101C30005A6100229A611A46126942F001021A6141
:101C400000BF4FF0E022106900F001021AB100F469
:101C50008032002AF5D04FF0E022126922F0010212
:101C60004FF0E0231A6100229A617047740000204F
:101C7000FEF762FB00BFFEE74FF04070E1EE100A96
:101C800070470000A41C000800000020780000003D
:101C9000C40100081C1D000878000020A0070000F7
:101CA000E001000800000000010203040102030437
:101CB000060708090000000000000000DB0F494093
:101CC0000000000000000000000000000000000014
:101CD0000000000000000000000000000000000004
:101CE00000000000000000000000A041000088414A
:101CF00000000000000000000000000000000000E4
:101D000000040004000400040303000000000000BD
:0C1D1000000000000000000000000000C7
:040000050800018965
:00000001FF
